:020000040000FA
:04000000C6EF2CF02B
:10542600120012001E0E35EC2AF01200010E0001C9
:10543600DB6F1200010E0001D76F1200000E000193
:10544600D76F1200020E0001D76F1200050E000181
:10545600DB6F1200060E0001DB6F120000009841A0
:1054660000002041016EC80E00D0E82EFDD7012EA7
:0A54760036EF2AF03FEF2AF0120093
:10548100295C1F40295C1F4001005A00C80002002E
:1054910002000101010170026E0D0E016EFC0EE8A9
:1054A1002EFED7012EFCD7022E4DEF2AF059EF2AFE
:1054B100F01200020E046E020E056E000E066E055D
:1054C100C001F006C002F004509DEC2EF012000263
:1054D1000E046E020E056E000E066E05C001F0068A
:1054E100C002F004509DEC2EF01200020E046E0278
:1054F1000E056E000E066E05C001F006C002F00436
:10550100509DEC2EF01200929E9296928893989361
:105511008A938E939C9284928C928A898E8A8C8AA9
:10552100888986120000F000F000F000F000F00021
:10553100F000F000F000F000F000F000F000F000EA
:10554100F01200B3EC2AF0000E056E000E8CEC2F69
:10555100F0000E0001DB6F000ECD6F000ECC6F006E
:105561000ED86F1200B7EF2AF0B7EF2AF03FEC2CFC
:10557100F00009D8A4BFEF2AF0C1EF2AF0B7EF2A53
:10558100F0C3EF2AF0010E91EC2BF0120001500351
:1055910002F3CF05F0F4CF06F001500402F35006F8
:1055A1002602500302F350062605C001F006C00290
:1055B100F0DBEF2AF01200B3EC2AF0000E6AEC2CBB
:1055C100F0000E026EBF0E036E16EC2EF0400E6A56
:1055D100EC2CF0110E026EBF0E036E16EC2EF012C3
:1055E100005AEC2AF0120E0001E36FF2C0E2F08AD9
:1055F1009C00F000F000F00001E351D3EC2BF0002F
:1056010001E251D3EC2BF08A8CC69A12005AEC2A93
:10561100F0110E0001E36FF4510008076E0704E278
:105621006F8A9C00F000F000F00001E351D3EC2BF5
:10563100F00001E251D3EC2BF08A8CC69A1200F6ED
:10564100C0E4F00001F7510F0BE56FE551FE11E5E4
:105651006F68EC2AF08A9800F000F000F00001E594
:1056610051D3EC2BF00001E451D3EC2BF08A88C626
:105671009A1200F8C0E6F00001F9510F0BE76FE74D
:1056810051FE11E76F68EC2AF0899E00F000F000EE
:10569100F00001E751D3EC2BF00001E651D3EC2BE4
:1056A100F0898EC69A1200036E000E026E3A0E0346
:1056B100605DEF2BF05FEF2BF06BEF2BF02F0E0304
:1056C1006465EF2BF067EF2BF06BEF2BF0010E020F
:1056D1006E6BEF2BF002C001F0013070EF2BF01276
:1056E100001C501D101E101F10D8B47AEF2BF07C37
:1056F100EF2BF086EF2BF0000E1C1A000E1D1A0086
:105701000E1E1A800E1F1A86EF2BF01CC01CF01DF6
:10571100C01DF01EC01EF01FC01FF090EF2BF01235
:1057210000016EF00E9316F00E811601380F0B0F6B
:105731000B81128B948B9093EC2AF08B8293EC2A41
:10574100F08B92F00E811601500F0B811293EC2A0F
:10575100F08B8293EC2AF08B920F0E9312B1EF2B08
:10576100F01200016EF00E9316F00E811601380F43
:105771000B0F0B81128B808B9493EC2AF08B82930D
:10578100EC2AF08B92F00E811601500F0B811293CF
:10579100EC2AF08B8293EC2AF08B920F0E9312D2AB
:1057A100EF2BF01200026EC9CF01F09E96C69E0249
:1057B100C0C9FFC6AEDFEF2BF0E1EF2BF0E9EF2B15
:1057C100F0F4EF2BF0F4EF2BF0F4EF2BF0E9EF2BEB
:1057D100F09EA6EEEF2BF0F0EF2BF0E9EF2BF0F4BB
:1057E100EF2BF0F4EF2BF0120008EF2CF0020E007B
:1057F10001DB6F18EF2CF0030EDB6F18EF2CF004B8
:105801000EDB6F18EF2CF018EF2CF018EF2CF000D6
:1058110001D751000AD8B4F7EF2BF0010AD8B4FC34
:10582100EF2BF0030AD8B400EF2CF018EF2CF01294
:1058310000000E0001841B000E851B000E861B80DC
:105841000E871B80C065F081C066F082C067F0835F
:10585100C068F084C069F085C06AF086C06BF087CB
:10586100C06CF077EC46F065C080F066C081F067EF
:10587100C082F068C083F03EEF2CF012008B848B65
:105881009093EC2AF08B8293EC2AF081A64BEF2CBB
:10589100F04DEF2CF05CEF2CF08B9293EC2AF08B17
:1058A1008293EC2AF08B928B94010E69EF2CF069B4
:1058B100EF2CF069EF2CF08B9293EC2AF08B829312
:1058C100EC2AF08B928B94000E69EF2CF069EF2C8F
:1058D100F01200046EF00E9316F00E8116045001C2
:1058E1006E026A018E040E036E023402320132032B
:1058F1002E75EF2CF001500F0B81128B948B90932E
:10590100EC2AF08B8293EC2AF08B92F00E81160434
:10591100500F0B811293EC2AF08B8293EC2AF08BBF
:10592100920F0E931295EF2CF01200000E036E00F1
:105931000E026E03BEA6EF2CF0035009E1140E0215
:105941005CD8A0A6EF2CF0A8EF2CF0ACEF2CF0C5A2
:10595100EF2CF0C5EF2CF0820E016EDE0EE82EFE6C
:10596100D7012EFCD7024A032A03BEC1EF2CF00354
:105971005009E1140E025CD8A0C1EF2CF0C3EF2C4A
:10598100F0ACEF2CF0C5EF2CF01200620EF66E5465
:105991000EF76E000EF86E01EE4AF010EE08F009F7
:1059A10000F5CFEEFFE550E150FAE1810EF66E54BD
:1059B1000EF76E000EF86E00EEE8F010EE17F0092B
:1059C10000F5CFEEFFE550E150FAE101EE00F04ABB
:1059D1000EEE6AE806FDE100EEBCF02C0EEE6AE880
:1059E10006FDE1000EF86E000139EF49F001C00536
:1059F100F002C006F001EF2DF0054A062A01EF2D55
:105A0100F005C0F6FF06C0F7FFF86A0F0EF7640352
:105A1100D00800F55005D0F6CFE9FFF7CFEAFFEF48
:105A2100500009D8A417EF2DF019EF2DF0FDEF2C40
:105A3100F01BEF2DF001C003F002C004F0031E04BF
:105A41001E034A042A05500324016E065004200255
:105A51006E2BEF2DF0120001C005F002C006F036EA
:105A6100EF2DF0054A062A36EF2DF005C0D9FF06C5
:105A7100C0DAFFDF50D8A440EF2DF042EF2DF03215
:105A8100EF2DF04CEF2DF04CEF2DF0054A062A03D7
:105A91004A042A4CEF2DF003C0F6FF04C0F7FF05BE
:105AA100C0D9FF06C0DAFF0800F5CFDFFFDF50D80D
:105AB100A45DEF2DF05FEF2DF046EF2DF061EF2D9E
:105AC100F01200000E0001E16F000EE06F000ED336
:105AD1006F000ED26F76EC2AF0899600F000F0008C
:105AE100F0C9CFDDF00001DF51D3EC2BF0C9CFDDE0
:105AF100F00001DE51D3EC2BF0C9CFE0F00001DD65
:105B010051D3EC2BF0C9CFE1F00001E151E0C00924
:105B1100F00A6A09C00AF0096A0910D26F0A50D363
:105B21006F898600F000F000F0C69AD2C007F0D36A
:105B3100C008F09CEF2DF0120003500410D8B4A45B
:105B4100EF2DF0A6EF2DF0D4EF2DF0010E056EB084
:105B5100EF2DF0D89003360436052AB0EF2DF0046E
:105B6100AEB5EF2DF0B7EF2DF0AAEF2DF0BBEF2D75
:105B7100F0BBEF2DF00350015C04500258D8A0C4D3
:105B8100EF2DF0C6EF2DF0CCEF2DF00350015E04A8
:105B910050025ACCEF2DF0D89004320332052EBBBF
:105BA100EF2DF0D4EF2DF001C001F002C002F01290
:105BB10000280E82EC33F0E0EF2DF0E0EF2DF03F06
:105BC100EC2CF00009D8A4E8EF2DF0EAEF2DF0E07D
:105BD100EF2DF0ECEF2DF0060E91EC2BF0F3EF2D05
:105BE100F0F3EF2DF03FEC2CF00009D8A4FBEF2DE2
:105BF100F0FDEF2DF0F3EF2DF0FFEF2DF00C0E91F6
:105C0100EC2BF006EF2EF006EF2EF03FEC2CF0001F
:105C110009D8A40EEF2EF010EF2EF006EF2EF012A1
:105C2100EF2EF0010E91EC2BF012003EEF2EF01C46
:105C3100EF2EF01CEF2EF03FEC2CF00009D8A4243D
:105C4100EF2EF026EF2EF01CEF2EF028EF2EF002B3
:105C5100C0F6FF03C0F7FFF86A0F0EF76403D00820
:105C610000F55005D0F6CFE9FFF7CFEAFFEF50B2CC
:105C7100EC2BF0024A032A3EEF2EF002C0F6FF039E
:105C8100C0F7FFF86A0F0EF76403D00800F550055E
:105C9100D0F6CFE9FFF7CFEAFFEF500009D8A454BF
:105CA100EF2EF056EF2EF01CEF2EF058EF2EF012E3
:105CB10000000E0C6E000E0B6E09500A10D8B46471
:105CC100EF2EF066EF2EF098EF2EF0010E0D6E70B4
:105CD100EF2EF0D89009360A360D2A70EF2EF00A11
:105CE100AE75EF2EF077EF2EF06AEF2EF07BEF2EF0
:105CF100F07BEF2EF0D8900B360C360950075C0A7A
:105D0100500858D8A087EF2EF089EF2EF090EF2E93
:105D1100F00950075E0A50085A0B8090EF2EF0D818
:105D2100900A3209320D2E7BEF2EF098EF2EF00BF8
:105D3100C007F00CC008F01200036E3F0EC716003A
:105D41000EC66E0350C6120250C712B6EF2EF0C730
:105D51008CD3EF2EF0C78CC688D3EF2EF0C688D334
:105D6100EF2EF0D3EF2EF0D3EF2EF00150000AD832
:105D7100B4A8EF2EF0020AD8B4ABEF2EF0010AD886
:105D8100B4AFEF2EF0D3EF2EF0D3EF2EF094869236
:105D91008ADEEF2EF09486DEEF2EF09496DEEF2E63
:105DA100F0DEEF2EF00350040AD8B4C7EF2EF00155
:105DB1000AD8B4CBEF2EF0CEEF2EF09488949AC689
:105DC1008A12001250131014101510D8B4EBEF2ED4
:105DD100F0EDEF2EF027EF2FF0010E166EF9EF2EFA
:105DE100F0D8901236133614361536162AF9EF2EDE
:105DF100F015AEFEEF2EF000EF2FF0F1EF2EF004D4
:105E0100EF2FF004EF2FF012500E5C13500F5814C7
:105E110050105815501158D8A011EF2FF013EF2F33
:105E2100F01DEF2FF012500E5E13500F5A14501048
:105E31005A1550115A1DEF2FF0D890153214321304
:105E4100321232162E04EF2FF027EF2FF00EC00E74
:105E5100F00FC00FF010C010F011C011F0120000CF
:105E61000E096E000E0A6E000E0B6E000E0C6E0512
:105E710050061007100810D8B441EF2FF043EF2F50
:105E8100F083EF2FF0010E0D6E4FEF2FF0D890053C
:105E9100360636073608360D2A4FEF2FF008AE5476
:105EA100EF2FF056EF2FF047EF2FF05AEF2FF05A68
:105EB100EF2FF0D89009360A360B360C3605500113
:105EC1005C065002580750035808500458D8A06C7B
:105ED100EF2FF06EEF2FF079EF2FF00550015E06F6
:105EE10050025A0750035A0850045A098079EF2F7B
:105EF100F0D89008320732063205320D2E5AEF2FB4
:105F0100F083EF2FF009C001F00AC002F00BC003CB
:105F1100F00CC004F01200076E000E066E0F0E07A3
:105F21006495EF2FF097EF2FF09BEF2FF0000E0706
:105F31006E9BEF2FF0030E0564A1EF2FF0A3EF2F5F
:105F4100F0C2EF2FF0000E056EC2EF2FF0C2EF2F5F
:105F5100F007C006F0D9EF2FF00750400F066ED9B9
:105F6100EF2FF00750100F066ED9EF2FF0075050AA
:105F71000F066ED9EF2FF007C006F0D9EF2FF0D939
:105F8100EF2FF00550000AD8B4A9EF2FF0010AD87D
:105F9100B4ADEF2FF0030AD8B4B2EF2FF0010AD855
:105FA100B4B7EF2FF0BCEF2FF0D9EF2FF0D9EF2FCF
:105FB100F03FEC2CF00009D8A4E1EF2FF0E3EF2F34
:105FC100F0D9EF2FF0E5EF2FF006506AEC2CF0122C
:105FD10000000E0114096E000E02140A6E800E03F9
:105FE100140B6E7F0E04140C6E09500A100B100C6A
:105FF10010D8A4FEEF2FF000EF30F00AEF30F000E0
:106001000E016E000E026E000E036E000E046E0A8B
:10601100EF30F0000E0514096E000E06140A6E80B2
:106021000E07140B6E7F0E08140C6E09500A100B2C
:10603100100C10D8A41FEF30F021EF30F02BEF300F
:10604100F0000E056E000E066E000E076E000E08C3
:106051006E2BEF30F0055001180FE1065002180CBD
:10606100E10750031809E108500418D8B43BEF3098
:10607100F03DEF30F040EF30F0D89045EF30F0D800
:106081008045EF30F045EF30F012000001B76F7B33
:10609100EF30F049EC39F0A3EF30F01CEC3BF0A30A
:1060A100EF30F0C5EC34F0000E0001D76FA3EF30F4
:1060B100F023EC34F0010E0001D76FA3EF30F0E6CE
:1060C100EC32F0020E0001D76FA3EF30F065EC3235
:1060D100F0A3EF30F0E4EC31F0A3EF30F0DCEC2A88
:1060E100F0A3EF30F074EC4DF0A3EF30F0A3EF30FC
:1060F100F0A3EF30F00001B751000AD8B44AEF30F5
:10610100F0010AD8B44EEF30F0030AD8B452EF30A0
:10611100F0010AD8B459EF30F0070AD8B460EF3073
:10612100F0010AD8B467EF30F0030AD8B46BEF304E
:10613100F0010AD8B46FEF30F00F0AD8B473EF3022
:10614100F0A3EF30F01200026E060E0001DF6F01C6
:1061510050D8B4AEEF30F0B0EF30F0B2EF30F00421
:106161000EDF6F000EDE6FDEEF30F0000EDE6F012E
:10617100EF31F0400EDE6F01EF31F0800EDE6F0186
:10618100EF31F0C00EDE6F01EF31F0DF81000EDE86
:106191006F01EF31F0DF81400EDE6F01EF31F0DF93
:1061A10081800EDE6F01EF31F0DF81C00EDE6F0105
:1061B100EF31F001EF31F001EF31F00250000AD878
:1061C100B4B6EF30F0010AD8B4BAEF30F0030AD810
:1061D100B4BEEF30F0010AD8B4C2EF30F0070AD8EC
:1061E100B4C6EF30F0010AD8B4CBEF30F0030AD8CF
:1061F100B4D0EF30F0010AD8B4D5EF30F001EF316F
:10620100F01200000E066E02BE0BEF31F009EF3105
:10621100F013EF31F0016C021ED8B0022A010E0614
:106221006E13EF31F004BE1AEF31F018EF31F020A8
:10623100EF31F0036C041ED8B0042A20EF31F003D3
:10624100500410D8B427EF31F029EF31F059EF3174
:10625100F0010E056E33EF31F0D8900336043605A8
:106261002A33EF31F004AE38EF31F03AEF31F02D4F
:10627100EF31F03EEF31F03EEF31F00350015C04BD
:10628100500258D8A047EF31F049EF31F04FEF31CC
:10629100F00350015E0450025A4FEF31F0D89004E0
:1062A100320332052E3EEF31F059EF31F059EF3123
:1062B100F00650D8B45FEF31F061EF31F067EF31A4
:1062C100F0016C021ED8B0022A67EF31F001C00163
:1062D100F002C002F06DEF31F01200000E0C6E0AF8
:1062E100BE77EF31F075EF31F07FEF31F0096C0AD5
:1062F1001ED8B00A2A010E0C6E7FEF31F008BE865F
:10630100EF31F084EF31F08EEF31F0076C081ED8D9
:10631100B0082A010E0C1A8EEF31F0000E0E6E003D
:106321000E0D6E09500A10D8B499EF31F09BEF3180
:10633100F0CFEF31F0010E0B6EA5EF31F0D89009DF
:10634100360A360B2AA5EF31F00AAEAAEF31F0ACCE
:10635100EF31F09FEF31F0B0EF31F0B0EF31F0D825
:10636100900D360E360950075C0A500858D8A0BC6B
:10637100EF31F0BEEF31F0C5EF31F00950075E0AA1
:1063810050085A0D80C5EF31F0D8900A3209320B0E
:106391002EB0EF31F0CFEF31F0CFEF31F00C50D81C
:1063A100B4D5EF31F0D7EF31F0DDEF31F00D6C0EF8
:1063B1001ED8B00E2ADDEF31F00DC007F00EC00877
:1063C100F0E3EF31F01200000E0A6E0968F2C0012D
:1063D100F0F3C002F0000E046E640E036EC7EC2AE7
:1063E100F001C007F002C008F059EC2EF007C00E12
:1063F100F008C00FF0106A116A000E2EEC3AF00E90
:10640100C000F10FC001F110C002F111C003F13B56
:106411000E0001886F010E896FF40E8A6FBF0E8B1B
:106421006FF2C08CF0F3C08DF030EC52F0360E00FC
:1064310001886F010E896FE40E8A6FBF0E8B6F00AA
:10644100C18CF001C18DF002C18EF003C18FF0301B
:10645100EC52F0000E6AEC2CF00001FC05D8A434DB
:10646100EF32F036EF32F03EEF32F0DE0E026EBE6A
:106471000E036E16EC2EF046EF32F0330E026EBFB5
:106481000E036E16EC2EF046EF32F0400E6AEC2C45
:10649100F0A40E026EBF0E036E16EC2EF03B0E0240
:1064A1006E010E036E16EC2EF04C0E6AEC2CF036DB
:1064B1000E026E010E036E16EC2EF0F90E026EBF87
:1064C1000E036E16EC2EF01200000E0A6E0968F42F
:1064D100C001F0F5C002F0000E046E640E036EC739
:1064E100EC2AF001C007F002C008F059EC2EF007C9
:1064F100C00EF008C00FF0106A116A000E2EEC3ABF
:10650100F00EC004F10FC005F110C006F111C00773
:10651100F1400E0001886F010E896FF40E8A6FBF82
:106521000E8B6FF4C08CF0F5C08DF030EC52F0455D
:106531000E0001886F010E896FE40E8A6FBF0E8B0A
:106541006F04C18CF005C18DF006C18EF007C18FBB
:10655100F030EC52F0000E6AEC2CF00001FC05D892
:10656100A4B5EF32F0B7EF32F0BFEF32F0CD0E024B
:106571006EBE0E036E16EC2EF0C7EF32F0EF0E0278
:106581006EBE0E036E16EC2EF0C7EF32F0400E6AAF
:10659100EC2CF0A40E026EBF0E036E16EC2EF04032
:1065A1000E026E010E036E16EC2EF04C0E6AEC2CF0
:1065B100F0450E026E010E036E16EC2EF0F90E027E
:1065C1006EBF0E036E16EC2EF012004EC142F04F5C
:1065D100C143F050C144F051C145F04AC169F04B8B
:1065E100C16AF04CC16BF04DC16CF0C4C01CF0C568
:1065F100C01DF0C6C01EF0C7C01FF071EC2BF01C0F
:10660100C065F01DC066F01EC067F01FC068F0775E
:10661100EC46F065C046F066C047F067C048F068D8
:10662100C049F016EC40F042C0C8F043C0C9F04484
:10663100C0CAF045C0CBF0E8C046F0E9C047F0EA77
:10664100C048F0EBC049F0000E246E000E256E80AC
:106651000E266E450E276EC8C020F0C9C021F0CAB3
:10666100C022F0CBC023F040EC44F020C042F02126
:10667100C043F022C044F023C045F016EC40F04284
:10668100C05BF043C05CF044C05DF045C05EF067A4
:10669100EC35F05BC0F8F05CC0F9F03AEC2BF00E91
:1066A1000E0001886F010E896FDE0E8A6FBF0E8B9F
:1066B1006FC8C08CF0C9C08DF0CAC08EF0CBC08F3E
:1066C100F030EC52F0000E6AEC2CF0AA0E026EBE15
:1066D1000E036E16EC2EF0400E6AEC2CF0D80E0272
:1066E1006EBF0E036E16EC2EF00E0E026E010E033F
:1066F1006E16EC2EF0760E026EBF0E036E16EC2EA9
:10670100F01200056EF00E8116F00E93169494941B
:106711009094928B948B908B9215EC2AF0300E9181
:10672100EC2BF0050E4CEC2AF0300E91EC2BF00125
:106731000E4CEC2AF0320E91EC2BF0A2EF33F0A2CA
:10674100EF33F03FEC2CF00009D8A4AAEF33F0AC02
:10675100EF33F0A2EF33F0B2EF33F0B2EF33F0B238
:10676100EF33F03FEC2CF00009D8A4BAEF33F0BCC2
:10677100EF33F0B2EF33F0BEEF33F0055091EC2B75
:10678100F0C5EF33F0C5EF33F03FEC2CF00009D842
:10679100A4CDEF33F0CFEF33F0C5EF33F0D1EF33CA
:1067A100F0080E91EC2BF0D8EF33F0D8EF33F03F37
:1067B100EC2CF00009D8A4E0EF33F0E2EF33F0D88D
:1067C100EF33F0E4EF33F00F0E91EC2BF0EBEF33FE
:1067D100F0EBEF33F03FEC2CF00009D8A4F3EF33EA
:1067E100F0F5EF33F0EBEF33F0F7EF33F0010E910B
:1067F100EC2BF0FEEF33F0FEEF33F03FEC2CF0002A
:1068010009D8A406EF34F008EF34F0FEEF33F00AB4
:10681100EF34F0040E91EC2BF011EF34F011EF3462
:10682100F03FEC2CF00009D8A419EF34F01BEF3441
:10683100F011EF34F01DEF34F0800E6AEC2CF022F1
:10684100EF34F01200E8C024F0E9C025F0EAC026D8
:10685100F0EBC027F0F8C00EF0F9C00FF0106A118C
:106861006A000E2EEC3AF00EC020F00FC021F0109D
:10687100C022F011C023F040EC44F020C042F021CE
:10688100C043F022C044F023C045F0000E466E0024
:106891000E476E800E486E450E496E16EC40F04272
:1068A100C0C8F043C0C9F044C0CAF045C0CBF00E27
:1068B1000E0001886F010E896FDE0E8A6FBF0E8B8D
:1068C1006FC8C08CF0C9C08DF0CAC08EF0CBC08F2C
:1068D100F030EC52F0000E6AEC2CF0AD0E026EBFFF
:1068E1000E036E16EC2EF00E0E026E010E036E16E6
:1068F100EC2EF09A0E026EBF0E036E16EC2EF040D7
:106901000E6AEC2CF0220E0001886F010E896FDEF9
:106911000E8A6FBF0E8B6FC0C08CF0C1C08DF0C2EC
:10692100C08EF0C3C08FF030EC52F0EF0E026EBF9C
:106931000E036E16EC2EF0220E026E010E036E1681
:10694100EC2EF08F0E026EBF0E036E16EC2EF04B86
:106951000E6AEC2CF00001FC05D8A4B2EF34F0B4BF
:10696100EF34F0BCEF34F04F0E026EBF0E036E1623
:10697100EC2EF0C4EF34F0600E026EBF0E036E1603
:10698100EC2EF0C4EF34F01200E8C024F0E9C02589
:10699100F0EAC026F0EBC027F0F8C00EF0F9C00F06
:1069A100F0106A116A000E2EEC3AF00EC020F00FC2
:1069B100C021F010C022F011C023F040EC44F020BF
:1069C100C042F021C043F022C044F023C045F00092
:1069D1000E466E000E476E800E486E450E496E16CD
:1069E100EC40F042C0C8F043C0C9F044C0CAF04511
:1069F100C0CBF00E0E0001886F010E896FDE0E8A8A
:106A01006FBF0E8B6FC8C08CF0C9C08DF0CAC08E2D
:106A1100F0CBC08FF030EC52F0000E6AEC2CF0D1CC
:106A21000E026EBF0E036E16EC2EF00E0E026E01FC
:106A31000E036E16EC2EF09A0E026EBF0E036E164A
:106A4100EC2EF0400E6AEC2CF0220E0001886F0152
:106A51000E896FDE0E8A6FBF0E8B6FC0C08CF0C1C6
:106A6100C08DF0C2C08EF0C3C08FF030EC52F0EF99
:106A71000E026EBF0E036E16EC2EF0220E026E0198
:106A81000E036E16EC2EF09A0E026EBF0E036E16FA
:106A9100EC2EF04B0E6AEC2CF00001FC05D8A4544E
:106AA100EF35F056EF35F05EEF35F04F0E026EBF69
:106AB1000E036E16EC2EF066EF35F0600E026EBF1F
:106AC1000E036E16EC2EF066EF35F012005D345EAB
:106AD10034646E6450D8A470EF35F072EF35F07EF7
:106AE100EF35F0000E5B6E000E5C6E000E5D6E0009
:106AF1000E5E6E0FEF36F00FEF36F05BC05FF05CAD
:106B0100C060F05DC061F05EC062F0200E8EEF35B6
:106B1100F0D8906232613260325F32E82E89EF350F
:106B2100F05F50636E5D8EFF0E5B16FF0E5C16FF0D
:106B31000E5D16000E5E16960E645E64BEA5EF3500
:106B4100F0A3EF35F0C9EF35F06450800A970FD804
:106B5100B0ADEF35F0AFEF35F0BDEF35F0000E5BC6
:106B61006E000E5C6E000E5D6E000E5E6E0FEF36F7
:106B7100F00FEF36F0BDEF35F0D8905E325D325C4C
:106B8100325B32643EBDEF35F0F3EF35F0F3EF35B4
:106B9100F01F0E6464CFEF35F0D1EF35F0E7EF353C
:106BA100F0000E5B6E000E5C6E000E5D6E000E5E00
:106BB1006E0FEF36F00FEF36F0E7EF35F0D8905B60
:106BC100365C365D365E366406E7EF35F06450D8E4
:106BD100A4EDEF35F0EFEF35F0DFEF35F0F3EF3502
:106BE100F0F3EF35F06350D8B4F9EF35F0FBEF3542
:106BF100F005EF36F05E1E5D1E5C1E5B6C000E5CE8
:106C0100225D225E2205EF36F05BC05BF05CC05C6A
:106C1100F05DC05DF05EC05EF00FEF36F012000077
:106C21000E00018015796E000E81157A6E800E823C
:106C3100157B6E7F0E83157C6E79507A107B107CEC
:106C410010D8A426EF36F028EF36F032EF36F000F8
:106C51000E806F000E816F000E826F000E836F3207
:106C6100EF36F0000E8415796E000E85157A6E8070
:106C71000E86157B6E7F0E87157C6E79507A107BA0
:106C8100107C10D8A447EF36F049EF36F053EF36B9
:106C9100F0000E846F000E856F000E866F000E8768
:106CA1006F53EF36F083AF58EF36F05AEF36F07985
:106CB100EF36F080C079F081C07AF082C07BF0833A
:106CC100C07CF0791E7A1E7B1E7C1E792A000E7A0A
:106CD100227B227C22000E7924806F000E7A208193
:106CE1006F000E7B20826F800E7C20836F79EF36E0
:106CF100F087AF7EEF36F080EF36F09DEF36F0840F
:106D0100C079F085C07AF086C07BF087C07CF079CD
:106D11001E7A1E7B1E7C1E792A000E7A227B227C23
:106D210022000E7924846F000E7A20856F000E7B7D
:106D310020866F800E7C20876F000E801B000E81E5
:106D41001B000E821B800E831B000E841B000E8510
:106D51001B000E861B800E871B8451805D8551812F
:106D6100598651825987518359D8B0BAEF36F0BC50
:106D7100EF36F0BFEF36F0D890C4EF36F0D880C4CC
:106D8100EF36F0C4EF36F01200033404340E6E0E09
:106D910050D8A4CEEF36F0D0EF36F0DCEF36F0006D
:106DA1000E016E000E026E000E036E000E046E9A4E
:106DB100EF37F09AEF37F0073408340D6E0D50D8E5
:106DC100A4E5EF36F0E7EF36F0F3EF36F0000E0111
:106DD1006E000E026E000E036E000E046E9AEF3707
:106DE100F09AEF37F0038EFF0E0116FF0E0216FF29
:106DF1000E0316000E0416078EFF0E0516FF0E0673
:106E010016FF0E0716000E0816000E096E000E0A78
:106E11006E000E0B6E000E0C6E7F0E0E5E0D50A0FE
:106E21000F0E5E200E0D6E16EF37F0D89009360A60
:106E3100360B360C360550015C06500258075003DC
:106E41005808500458D8A028EF37F02AEF37F0350A
:106E5100EF37F00550015E0650025A0750035A08F9
:106E610050045A098035EF37F0D8900136023603C5
:106E71003604360D2E16EF37F03FEF37F00EBE46D3
:106E8100EF37F044EF37F06AEF37F00E50800A9F8A
:106E91000FD8B04EEF37F050EF37F05EEF37F0001C
:106EA1000E016E000E026E000E036E000E046E9A4D
:106EB100EF37F09AEF37F05EEF37F0D8900C320BE6
:106EC100320A3209320E3E5EEF37F092EF37F0921E
:106ED100EF37F01F0E0E6470EF37F072EF37F08866
:106EE100EF37F0000E016E000E026E000E036E0011
:106EF1000E046E9AEF37F09AEF37F088EF37F0D83B
:106F01009009360A360B360C360E0688EF37F00E2E
:106F110050D8A48EEF37F090EF37F080EF37F09232
:106F2100EF37F009C001F00AC002F00BC003F00C0A
:106F3100C004F0120003C009F00A6A0B6A023409A6
:106F41003601E30A800950116E1150D8A4ABEF3716
:106F5100F0ADEF37F0B9EF37F0000E016E000E0221
:106F61006E000E036E000E046E71EF38F071EF3893
:106F7100F007C009F00A6A0B6A0634093601E30A10
:106F8100800950106E1050D8A4C9EF37F0CBEF37FD
:106F9100F0D7EF37F0000E016E000E026E000E0307
:106FA1006E000E046E71EF38F071EF38F0028EFF53
:106FB1000E0116FF0E0216000E0316068EFF0E05B9
:106FC10016FF0E0616000E0716000E0C6E000E0DB3
:106FD1006E000E0E6E000E0F6E7F0E115E10509839
:106FE1000F115E180E106ED8900C360D360E360F3E
:106FF100360550015C0650025807500358D8A004CA
:10700100EF38F006EF38F00DEF38F00550015E066D
:1070110050025A0750035A0C80D8900136023603A9
:1070210036102EF4EF37F016EF38F011BE1DEF38A1
:10703100F01BEF38F041EF38F01150800A970FD86C
:10704100B025EF38F027EF38F035EF38F0000E01BA
:107051006E000E026E000E036E000E046E71EF38AC
:10706100F071EF38F035EF38F0D8900F320E320D65
:10707100320C32113E35EF38F069EF38F069EF38F4
:10708100F0170E116447EF38F049EF38F05FEF3831
:10709100F0000E016E000E026E000E036E000E0473
:1070A1006E71EF38F071EF38F05FEF38F0D8900C77
:1070B100360D360E360F3611065FEF38F01150D807
:1070C100A465EF38F067EF38F057EF38F069EF3823
:1070D100F00CC001F00DC002F00EC003F00FC004AF
:1070E100F012000E6E000E0D6E0F0E0E647BEF3867
:1070F100F07DEF38F081EF38F0000E0E6E81EF3841
:10710100F0030E076487EF38F089EF38F0A8EF3805
:10711100F0000E076EA8EF38F0A8EF38F00EC00DA2
:10712100F0BFEF38F00E50400F0D6EBFEF38F00E8C
:1071310050100F0D6EBFEF38F00E50500F0D6EBF97
:10714100EF38F0000E0D6EBFEF38F0BFEF38F007EB
:1071510050000AD8B48FEF38F0010AD8B493EF3851
:10716100F0030AD8B498EF38F0010AD8B49DEF388B
:10717100F0A2EF38F0BFEF38F0BFEF38F03FEC2C62
:10718100F00009D8A4C7EF38F0C9EF38F0BFEF38E5
:10719100F0CBEF38F00D506AEC2CF008C001F0098B
:1071A100C002F0F7EC2CF001500D6E100E0D64DCF6
:1071B100EF38F0DEEF38F0E2EF38F0100E0D6EE24E
:1071C100EF38F00DC00CF00DEF39F0EAEF38F0EACE
:1071D100EF38F03FEC2CF00009D8A4F2EF38F0F4CE
:1071E100EF38F0EAEF38F0F6EF38F008C0F6FF09B3
:1071F100C0F7FFF86A0F0EF76403D00800F55005D9
:10720100D0F6CFE9FFF7CFEAFFEF50B2EC2BF00851
:107211004A092A0C060DEF39F00C50D8A413EF39A6
:10722100F015EF39F0EAEF38F017EF39F00A50D8DE
:10723100B41DEF39F01FEF39F048EF39F00D500E62
:10724100240008100F0C6E3CEF39F02AEF39F02AB8
:10725100EF39F03FEC2CF00009D8A432EF39F034CB
:10726100EF39F02AEF39F036EF39F00B50B2EC2B51
:10727100F00C063CEF39F00C50D8A442EF39F04441
:10728100EF39F02AEF39F048EF39F048EF39F012D1
:1072910000000E7D6E000E7E6E000E7F6E000E6A87
:1072A100EC2CF0CA0E026EBF0E036E16EC2EF040EF
:1072B1000E6AEC2CF0C30E026EBF0E036E16EC2E9E
:1072C100F02C0E0001886F010E896FDE0E8A6FBFF0
:1072D1000E8B6FC4C08CF0C5C08DF0C6C08EF0C7D8
:1072E100C08FF030EC52F02C0E016E010E026EFDDB
:1072F1000E036EBF0E046E2CEC2DF0220E000188E1
:107301006F010E896FDE0E8A6FBF0E8B6FC0C08C4E
:10731100F0C1C08DF0C2C08EF0C3C08FF030EC520E
:10732100F0220E016E010E026EFB0E036EBF0E0403
:107331006E2CEC2DF0000E076E2C0E086E010E095E
:107341006E010E0A6E200E0B6E060E72EC38F00105
:107351000E076E220E086E010E096E010E0A6E20D6
:107361000E0B6E060E72EC38F0E8EF39F0030E07E3
:107371006E220E086EBF0E096E010E0A6E200E0BF4
:107381006E000E72EC38F0F8EF39F0030E076E83E1
:107391000E086EBF0E096E010E0A6E200E0B6E00F6
:1073A1000E72EC38F0F8EF39F0030E076E660E0836
:1073B1006EBF0E096E010E0A6E200E0B6E000E726C
:1073C100EC38F0F8EF39F0F8EF39F0F8EF39F00078
:1073D10001D751000AD8B4B7EF39F0010AD8B4C6C1
:1073E100EF39F0030AD8B4D5EF39F0F8EF39F002EC
:1073F1000E056E000E8CEC2FF0B50E026EBF0E0363
:107401006E16EC2EF00E0E0001886F010E896FDEF4
:107411000E8A6FBF0E8B6FC8C08CF0C9C08DF0CAC9
:10742100C08EF0CBC08FF030EC52F00E0E016E0129
:107431000E026EFB0E036EBF0E046E2CEC2DF002DD
:107441000E076E0E0E086E010E096E010E0A6E20F9
:107451000E0B6E060E72EC38F01200166E1650D836
:10746100B435EF3AF037EF3AF059EF3AF011BE3E4A
:10747100EF3AF03CEF3AF059EF3AF00EC012F00F4C
:10748100C013F010C014F011C015F0121E131E1419
:107491001E151E122A000E13221422152212C018C4
:1074A100F013C019F014C01AF015C01BF063EF3AC5
:1074B100F00EC018F00FC019F010C01AF011C01B67
:1074C100F063EF3AF00E500F1010101110D8A46CA9
:1074D100EF3AF06EEF3AF07AEF3AF0000E0E6E00EE
:1074E1000E0F6E000E106E000E116E1BEF3BF01BA7
:1074F100EF3BF0960E176E86EF3AF0172AD8901BE5
:10750100321A321932183286EF3AF0000E1814127C
:107511006E000E1914136E000E1A14146EFE0E1B5B
:1075210014156E1250131014101510D8A49BEF3AB5
:10753100F09DEF3AF07EEF3AF0ADEF3AF0ADEF3A71
:10754100F0172A010E1826000E19221A221B22D822
:10755100901B321A3219321832000E1814126E00B2
:107561000E1914136E000E1A14146EFF0E1B14154F
:107571006E1250131014101510D8A4C2EF3AF0C4B3
:10758100EF3AF0A1EF3AF0D0EF3AF0D0EF3AF0173E
:1075910006D890183619361A361B36D0EF3AF01A3B
:1075A100BED5EF3AF0D7EF3AF0E1EF3AF0020E171D
:1075B10060DDEF3AF0DFEF3AF0C8EF3AF0E1EF3A91
:1075C100F017B0E6EF3AF0E8EF3AF0EBEF3AF01AE5
:1075D1009EEBEF3AF0D890173217C012F0136A14ED
:1075E1006A156A12C015F0146A136A126A125018E9
:1075F100121350191214501A1215501B121650D88A
:10760100B405EF3BF007EF3BF011EF3BF011BE0E7D
:10761100EF3BF00CEF3BF011EF3BF01B8E11EF3B1A
:10762100F018C00EF019C00FF01AC010F01BC011F5
:10763100F01BEF3BF01200000E466E000E476E800D
:107641000E486E450E496EE8C024F0E9C025F0EA07
:10765100C026F0EBC027F0F6C00EF0F7C00FF01017
:107661006A116A000E2EEC3AF00EC020F00FC02114
:10767100F010C022F011C023F040EC44F020C042D1
:10768100F021C043F022C044F023C045F016EC4085
:10769100F042C0B3F043C0B4F044C0B5F045C0B649
:1076A100F0B3C020F0B4C021F0B5C022F0B6C023C1
:1076B100F0000E246E000E256EC00E266E400E27C1
:1076C1006E40EC44F020C008F121C009F122C00A4B
:1076D100F123C00BF1180E0001886F010E896FDED6
:1076E1000E8A6FBF0E8B6F08C18CF009C18DF00A35
:1076F100C18EF00BC18FF030EC52F0180E016E010B
:107701000E026EFD0E036EBF0E046E2CEC2DF0000A
:107711000E6AEC2CF0BC0E026EBF0E036E16EC2E40
:10772100F0000E076E180E086E010E096E010E0AAA
:107731006E200E0B6E060E72EC38F0400E6AEC2CC9
:10774100F0CA0E026EBF0E036E16EC2EF02C0E0068
:1077510001886F010E896FDE0E8A6FBF0E8B6FC4B9
:10776100C08CF0C5C08DF0C6C08EF0C7C08FF030A0
:10777100EC52F02C0E016E010E026EFD0E036EBF77
:107781000E046E2CEC2DF0010E076E2C0E086E010E
:107791000E096E010E0A6E200E0B6E060E72EC388B
:1077A100F0220E0001886F010E896FDE0E8A6FBF15
:1077B1000E8B6FC0C08CF0C1C08DF0C2C08EF0C303
:1077C100C08FF030EC52F0220E016E010E026EFB02
:1077D1000E036EBF0E046E2CEC2DF0020E056E0032
:1077E1000E8CEC2FF0C30E026EBF0E036E16EC2E44
:1077F100F0020E076E220E086E010E096E010E0ACE
:107801006E200E0B6E060E72EC38F0030E056E0044
:107811000E8CEC2FF00001FC05D8A412EF3CF01403
:10782100EF3CF01CEF3CF0440E026EBF0E036E16EF
:10783100EC2EF024EF3CF0550E026EBF0E036E16D7
:10784100EC2EF024EF3CF012000001FD05D8A42C31
:10785100EF3CF02EEF3CF058EF3DF084B633EF3CB7
:10786100F035EF3CF057EF3CF0000EFD6F010ED903
:107871006F000ECF6F000ECE6FDA1F050EDB6FDAD1
:1078810051D8A446EF3CF048EF3CF04CEF3CF006F9
:107891000EDB6F4CEF3CF0B3EC2AF0010E0001D887
:1078A1006F000ECD6F000ECC6F57EF3CF080BA5CCD
:1078B100EF3CF05EEF3CF0D9EF3CF0CDEF3CF0CD8A
:1078C100EF3CF0000EFD6F010ED96F000ECF6F007F
:1078D1000ECE6F010ED86F000ECD6F000ECC6FF083
:1078E100C008F0F1C009F0081E091E084A092AFF64
:1078F1000E0826000E09220850F45D0950F559D8EA
:10790100B085EF3CF087EF3CF091EF3CF0F051F4A3
:1079110025F46FF151F521F56F91EF3CF091EF3CBA
:10792100F007EC2BF0D9EF3CF0000E0001FD6F01E8
:107931000ED96F000ECF6F000ECE6F010ED86F0003
:107941000ECD6F000ECC6FF0C008F0F1C009F00849
:107951001E091E084A092AFF0E0826000E092208E0
:1079610050F25D0950F359D8B0B9EF3CF0BBEF3C90
:10797100F0C5EF3CF0F051F225F26FF151F321F334
:107981006FC5EF3CF0C5EF3CF0F1EC2AF0D9EF3CCC
:10799100F0D9EF3CF0D9EF3CF00001DB51050AD8FA
:1079A100B462EF3CF0030AD8B495EF3CF0D9EF3C58
:1079B100F080BCDEEF3CF0E0EF3CF058EF3DF048EA
:1079C100EF3DF048EF3DF0000E0001FD6F010ED9D3
:1079D1006F000ECF6F000ECE6F010ED86F000ECD6F
:1079E1006F000ECC6FF451F05DF551F159D8B0FC38
:1079F100EF3CF0FEEF3CF010EF3DF0F0C008F0F18D
:107A0100C009F0081E091E084A092AF4510824F485
:107A11006FF5510920F56F10EF3DF010EF3DF007C4
:107A2100EC2BF058EF3DF0000E0001FD6F010ED977
:107A31006F000ECF6F000ECE6F010ED86F000ECD0E
:107A41006F000ECC6FF251F05DF351F159D8B02CAB
:107A5100EF3DF02EEF3DF040EF3DF0F0C008F0F1CA
:107A6100C009F0081E091E084A092AF2510824F229
:107A71006FF3510920F36F40EF3DF040EF3DF0F11E
:107A8100EC2AF058EF3DF058EF3DF058EF3DF00093
:107A910001DB51050AD8B4E4EF3CF0030AD8B41471
:107AA100EF3DF058EF3DF058EF3DF058EF3DF0124B
:107AB10000456E6D0E456460EF3DF062EF3DF013E1
:107AC100EF3EF0000E246E000E256E000E266E3F76
:107AD1000E276E000E0A6E640E096E45C007F0088F
:107AE1006A59EC2EF0D89007360836D89007360838
:107AF10036480E0726000E08227B0E0724F66EBDBF
:107B01000E0820F76E0900F5CF20F00900F5CF210E
:107B1100F00900F5CF22F00A00F5CF23F040EC4444
:107B2100F020C041F021C042F022C043F023C04404
:107B3100F0000E0A6E0A0E096E000E046E640E034A
:107B41006E45C001F0026A9DEC2DF001C007F00204
:107B5100C008F059EC2EF0D89007360836D89007B7
:107B6100360836240E0726000E08227B0E0724F65F
:107B71006EBD0E0820F76E0900F5CF24F00900F55F
:107B8100CF25F00900F5CF26F00A00F5CF27F04107
:107B9100C020F042C021F043C022F044C023F04095
:107BA100EC44F020C03DF021C03EF022C03FF02364
:107BB100C040F03DC020F03EC021F03FC022F04067
:107BC100C023F0000E046E0A0E036E45C001F002E0
:107BD1006A9DEC2DF0D89001360236D8900136021C
:107BE100367B0E0124F66EBD0E0220F76E0900F5FC
:107BF100CF24F00900F5CF25F00900F5CF26F00AD2
:107C010000F5CF27F040EC44F020C039F021C03A14
:107C1100F022C03BF023C03CF0B3EF3EF0B3EF3EA7
:107C2100F08BEF3EF00A0E456419EF3EF01BEF3E7C
:107C3100F08BEF3EF0000E246E000E256E000E2636
:107C41006E3F0E276E000E0A6E0A0E096E45C007C2
:107C5100F0086A59EC2EF0D89007360836D890070C
:107C6100360836240E0726000E08227B0E0724F65E
:107C71006EBD0E0820F76E0900F5CF20F00900F562
:107C8100CF21F00900F5CF22F00A00F5CF23F04013
:107C9100EC44F020C041F021C042F022C043F02367
:107CA100C044F041C020F042C021F043C022F04462
:107CB100C023F0000E046E0A0E036E45C001F002EF
:107CC1006A9DEC2DF0D89001360236D8900136022B
:107CD100367B0E0124F66EBD0E0220F76E0900F50B
:107CE100CF24F00900F5CF25F00900F5CF26F00AE1
:107CF10000F5CF27F040EC44F020C039F021C03A24
:107D0100F022C03BF023C03CF0B3EF3EF0B3EF3EB6
:107D1100F08BEF3EF04550040D7B0EF324F66EBD63
:107D21000EF420F76E0900F5CF20F00900F5CF2100
:107D3100F00900F5CF22F00A00F5CF23F0000E2460
:107D41006E000E256E000E266E3F0E276E40EC442F
:107D5100F020C039F021C03AF022C03BF023C03CF2
:107D6100F0B3EF3EF012000001846F000E0001D16C
:107D71006F000ED06F8451D8B4C1EF3EF0C3EF3E17
:107D8100F079EF3FF0000E016E000EA4EC30F00030
:107D91000E0001866F000E856F86BFD9EF3EF0861B
:107DA1005109E10A0E855DD8A0D9EF3EF0DBEF3E27
:107DB100F0DFEF3EF0FAEF3EF0FAEF3EF062EC2D2D
:107DC100F00001D0510724D06FD1510820D16F8527
:107DD1004B862B86BFF6EF3EF0865109E10A0E85F0
:107DE1005DD8A0F6EF3EF0F8EF3EF0DFEF3EF0FA9F
:107DF100EF3EF0D0C007F0D1C008F0000E0A6E0AC5
:107E01000E096E59EC2EF007C0D0F008C0D1F00079
:107E11000E0001C46F000EC56F000EC66F000EC7C5
:107E21006FBCC069F0BDC06AF0BEC06BF0BFC06C72
:107E3100F0000E466E000E476E800E486E450E49EC
:107E41006EECC024F0EDC025F0EEC026F0EFC027A7
:107E5100F0D0C00EF0D1C00FF0106A116A000E2EE2
:107E6100EC3AF00EC020F00FC021F010C022F0114A
:107E7100C023F040EC44F020C042F021C043F02286
:107E8100C044F023C045F016EC40F042C065F04319
:107E9100C066F044C067F045C068F077EC46F06515
:107EA100C080F066C081F067C082F068C083F08056
:107EB100C020F081C021F082C022F083C023F000F5
:107EC1000E246E000E256EC00E266E400E276E40EB
:107ED100EC44F020C0C4F021C0C5F022C0C6F0239C
:107EE100C0C7F0000E0001D16F000ED06F15EF403A
:107EF100F0000E016E010EA4EC30F0000E000188BE
:107F01006F000E876F88BF8FEF3FF0885109E10A3C
:107F11000E875DD8A08FEF3FF091EF3FF095EF3FD7
:107F2100F0B0EF3FF0B0EF3FF062EC2DF00001D088
:107F3100510724D06FD1510820D16F874B882B88EE
:107F4100BFACEF3FF0885109E10A0E875DD8A0ACC4
:107F5100EF3FF0AEEF3FF095EF3FF0B0EF3FF0D0E5
:107F6100C007F0D1C008F0000E0A6E0A0E096E5962
:107F7100EC2EF007C0D0F008C0D1F0000E0001C017
:107F81006F000EC16F000EC26F000EC36F000E4670
:107F91006E000E476E800E486E450E496EECC02491
:107FA100F0EDC025F0EEC026F0EFC027F0D0C00EF6
:107FB100F0D1C00FF0106A116A000E2EEC3AF00EEB
:107FC100C020F00FC021F010C022F011C023F040FA
:107FD100EC44F020C042F021C043F022C044F02321
:107FE100C045F016EC40F042C065F043C066F04475
:107FF100C067F045C068F0BCC069F0BDC06AF0BEA2
:10800100C06BF0BFC06CF077EC46F065C0C0F066A5
:10801100C0C1F067C0C2F068C0C3F0000E0001D15A
:108021006F000ED06F15EF40F012004550800B52DB
:108031006E45504524596E44AE21EF40F023EF4088
:10804100F026EF40F0598026EF40F05950D8B42C7B
:10805100EF40F02EEF40F045EF40F05928D8A4341E
:10806100EF40F036EF40F040EF40F0000E426E007E
:108071000E436E000E446E000E456E40EF40F0441C
:108081008E000E456E4FEF40F0000E426E000E4323
:108091006E000E446E000E456E4FEF40F049508069
:1080A1000B521A495049245A6E48AE5AEF40F05CBF
:1080B100EF40F05FEF40F05A805FEF40F05A50D848
:1080C100B465EF40F067EF40F07EEF40F05A28D8FA
:1080D100A46DEF40F06FEF40F079EF40F0000E46F5
:1080E1006E000E476E000E486E000E496E79EF402D
:1080F100F0488E000E496E88EF40F0000E466E008B
:108101000E476E000E486E000E496E88EF40F04635
:1081110050471048104910D8A491EF40F093EF4018
:10812100F0ADEF40F0000E426E000E436E000E44C3
:108131006E000E456E800E44127F0E451252504560
:108141001242C042F043C043F044C044F045C04530
:10815100F025EF42F025EF42F05950D8A4B3EF409B
:10816100F0B5EF40F0C9EF40F0000E426E000E4353
:108171006E000E446E000E456E42C042F043C04395
:10818100F044C044F045C045F025EF42F025EF42F0
:10819100F05A504A6E4B6A4A1E4B1E4A4A4B2A59A4
:1081A100504C6E4D6A4A504C264B504D227F0E4C1E
:1081B10024536E000E4D20546E42C04EF043C04F0A
:1081C100F044C050F045C051F0000E426E000E4325
:1081D1006E000E446E000E456E000E556E000E567A
:1081E1006E000E576E000E586E000E5A6E35EF413E
:1081F100F05A50D8B4FFEF40F001EF41F01AEF41CF
:10820100F0D8904E364F3650365136D890423643DC
:10821100364436453658AE10EF41F012EF41F013B7
:10822100EF41F04280D89055365636573658361AB7
:10823100EF41F046504E5C47504F58485050584916
:10824100505158D8A027EF41F029EF41F034EF41C8
:10825100F0588C46504E5E47504F5A4850505A493C
:1082610050515A34EF41F05A2A190E5A643BEF41EA
:10827100F03DEF41F0F9EF40F03FEF41F04E504F4C
:108281001050105110D8B448EF41F04AEF41F06658
:10829100EF41F0558066EF41F066EF41F0D8904232
:1082A1003643364436453658AE59EF41F05BEF411F
:1082B100F05CEF41F04280D890553656365736582B
:1082C100365306D8A0540666EF41F044AE6BEF4139
:1082D100F06DEF41F04FEF41F06FEF41F0000E5ABA
:1082E1006E58AE76EF41F078EF41F0A0EF41F0FF2C
:1082F1000E55144A6EFF0E56144B6EFF0E57144C5A
:108301006E7F0E58144D6E4A504B104C104D10D8C4
:10831100B48DEF41F08FEF41F093EF41F0010E5A30
:108321006EA0EF41F042A098EF41F09AEF41F0A02A
:10833100EF41F0010E5A6EA0EF41F0A0EF41F05A6B
:1083410050D8B4A6EF41F0A8EF41F0D0EF41F001D1
:108351000E4226000E43224422452245A0B3EF419E
:10836100F0B5EF41F0D0EF41F042C04AF043C04BCD
:10837100F044C04CF045C04DF04D344D324C324BC1
:10838100324A324AC042F04BC043F04CC044F04D37
:10839100C045F0534A542AD0EF41F0D0EF41F05498
:1083A100BEDBEF41F0545008E15328D8A0DBEF4188
:1083B100F0DDEF41F0EAEF41F0000E546E5368003A
:1083C1000E426E000E436E000E446E000E456EEAC4
:1083D100EF41F054BEF7EF41F0545006E15304D899
:1083E100B0F5EF41F0F7EF41F007EF42F0000E5426
:1083F1006E000E536E000E426E000E436E000E4470
:108401006E000E456E000E526E07EF42F053C059DA
:10841100F059A00EEF42F010EF42F013EF42F0449A
:108421008E16EF42F0449E16EF42F0D89059304537
:108431006E5250451242C042F043C043F044C04422
:10844100F045C045F025EF42F01200416E41BE2ECD
:10845100EF42F02CEF42F038EF43F0416C41508095
:108461000A120FD8A037EF42F039EF42F0C6EF42BF
:10847100F0000E0A6E0A0E096E000E046E640E0301
:108481006E4150016E026A01BE020602EC31F0013A
:10849100C007F002C008F06EEC31F0090E072607A4
:1084A10050040D7B0EF324F66EBD0EF420F76E0919
:1084B10000F5CF24F00900F5CF25F00900F5CF260E
:1084C100F00A00F5CF27F0000E0A6E640E096E4126
:1084D10050076E086A07BE08066EEC31F0120E07EF
:1084E100260750040D7B0EF324F66EBD0EF420F723
:1084F1006E0900F5CF20F00900F5CF21F00900F554
:10850100CF22F00A00F5CF23F040EC44F020C03D2B
:10851100F021C03EF022C03FF023C040F03DC0201A
:10852100F03EC021F03FC022F040C023F0000E0415
:108531006E0A0E036E4150016E026A01BE0206020E
:10854100EC31F00150040D7B0EF324F66EBD0EF4F8
:1085510020F76E0900F5CF24F00900F5CF25F009C9
:1085610000F5CF26F00A00F5CF27F040EC44F020CB
:10857100C039F021C03AF022C03BF023C03CF03FAB
:10858100EF44F03FEF44F020EF43F04150800A7593
:108591000FD8A0CEEF42F0D0EF42F020EF43F00031
:1085A1000E0A6E0A0E096E4150076E086A07BE0870
:1085B100066EEC31F0090E07260750040D7B0EF311
:1085C10024F66EBD0EF420F76E0900F5CF20F009F8
:1085D10000F5CF21F00900F5CF22F00A00F5CF23F5
:1085E100F0000E046E0A0E036E4150016E026A0124
:1085F100BE020602EC31F00150040D7B0EF324F6AD
:108601006EBD0EF420F76E0900F5CF24F00900F5D8
:10861100CF25F00900F5CF26F00A00F5CF27F0406D
:10862100EC44F020C039F021C03AF022C03BF023E5
:10863100C03CF03FEF44F03FEF44F020EF43F04106
:1086410050040D7B0EF324F66EBD0EF420F76E0977
:1086510000F5CF39F00900F5CF3AF00900F5CF3B2D
:10866100F00A00F5CF3CF03FEF44F03FEF44F0411A
:1086710050800A120FD8A040EF43F042EF43F0CFF1
:10868100EF43F0000E0A6E0A0E096E000E046E64CE
:108691000E036E4150016E026A01BE020602EC3108
:1086A100F001C007F002C008F06EEC31F0090E07CE
:1086B100260750040D470EF324F66EBD0EF420F785
:1086C1006E0900F5CF24F00900F5CF25F00900F57A
:1086D100CF26F00A00F5CF27F0000E0A6E640E09CE
:1086E1006E4150076E086A07BE08066EEC31F01243
:1086F1000E07260750040D470EF324F66EBD0EF447
:1087010020F76E0900F5CF20F00900F5CF21F0091F
:1087110000F5CF22F00A00F5CF23F040EC44F02021
:10872100C03DF021C03EF022C03FF023C040F03DEB
:10873100C020F03EC021F03FC022F040C023F00035
:108741000E046E0A0E036E4150016E026A01BE02F2
:108751000602EC31F00150040D470EF324F66EBD14
:108761000EF420F76E0900F5CF24F00900F5CF25AE
:10877100F00900F5CF26F00A00F5CF27F040EC44D0
:10878100F020C039F021C03AF022C03BF023C03CB8
:10879100F03FEF44F03FEF44F029EF44F0415080C7
:1087A1000A750FD8A0D7EF43F0D9EF43F029EF4472
:1087B100F0000E0A6E0A0E096E4150076E086A0734
:1087C100BE08066EEC31F0090E07260750040D476E
:1087D1000EF324F66EBD0EF420F76E0900F5CF20DE
:1087E100F00900F5CF21F00900F5CF22F00A00F5DC
:1087F100CF23F0000E046E0A0E036E4150016E028B
:108801006A01BE020602EC31F00150040D470EF37D
:1088110024F66EBD0EF420F76E0900F5CF24F009A1
:1088210000F5CF25F00900F5CF26F00A00F5CF2796
:10883100F040EC44F020C039F021C03AF022C03BB6
:10884100F023C03CF03FEF44F03FEF44F029EF4408
:10885100F04150040D470EF324F66EBD0EF420F7DF
:108861006E0900F5CF39F00900F5CF3AF00900F5AE
:10887100CF3BF00A00F5CF3CF03FEF44F01200236C
:1088810050800B2C6E23502324326E22AE4BEF44CA
:10889100F04DEF44F050EF44F0328050EF44F032AD
:1088A10050D8B456EF44F058EF44F06DEF44F03235
:1088B10028D8A45EEF44F060EF44F06AEF44F00082
:1088C1000E206E000E216E000E226E000E236E6AC7
:1088D100EF44F0228E77EF44F0000E206E000E215F
:1088E1006E000E226E000E236E77EF44F02750804B
:1088F1000B2C1A27502724316E26AE82EF44F084C8
:10890100EF44F087EF44F0318087EF44F03150D8E5
:10891100B48DEF44F08FEF44F0A4EF44F03128D848
:10892100A495EF44F097EF44F0A1EF44F0000E243A
:108931006E000E256E000E266E000E276EA1EF440E
:10894100F0268EACEF44F0000E246E000E256E0072
:108951000E266E000E276E3150D8B4B2EF44F0B43B
:10896100EF44F0BEEF44F03250D8A4BAEF44F0BC6B
:10897100EF44F0CAEF44F0BEEF44F0000E206E0069
:108981000E216E000E226E000E236E76EF46F076FB
:10899100EF46F026502002F3CF37F0F4CF38F0370E
:1089A100502D6E2E6A2F6A306A3850336E346A3514
:1089B1006A366A25502102F3CF37F0F4CF38F03709
:1089C100502D26000E2E222F223022385033260021
:1089D1000E34223522362224502202F3CF37F0F40E
:1089E100CF38F037502D26000E2E222F223022387C
:1089F100503326000E3422352236222FC030F02E7D
:108A0100C02FF02DC02EF02D6A24502102F3CF3754
:108A1100F0F4CF38F037502D2638502E22000E2F8B
:108A210022000E302225502002F3CF37F0F4CF3848
:108A3100F037502D2638502E22000E2F22000E30F6
:108A4100222FC030F02EC02FF02DC02EF02D6A2421
:108A5100502002F3CF37F0F4CF38F037502D2638BD
:108A6100502E22000E2F22000E302226502102F31A
:108A7100CF37F0F4CF38F037503326385034220056
:108A81000E3522000E362225502202F3CF37F0F4A4
:108A9100CF38F03750332638503422000E352200BB
:108AA1000E362226502202F3CF37F0F4CF38F037BA
:108AB10050286E3850296E2A6A2B6A2AC02BF02959
:108AC100C02AF028C029F0286A28503326295034BA
:108AD100222A5035222B5036222DC028F02EC029B3
:108AE100F02FC02AF030C02BF0190E7DEF45F0D8E1
:108AF100902B322A3229322832E82E78EF45F0289D
:108B0100503326295034222A5035222B5036222F19
:108B1100C030F02EC02FF02DC02EF02D6A31503212
:108B2100C028F0296A2826000E2922820E2824371F
:108B31006EFF0E2920386EB5EF45F0D890333634EC
:108B4100363536363630AEA8EF45F0AAEF45F0ABF4
:108B5100EF45F03380D8902D362E362F363036370C
:108B610006D8A03806B5EF45F035AEBAEF45F0BCF2
:108B7100EF45F09EEF45F0BEEF45F0000E316E304F
:108B8100AEC5EF45F0C7EF45F0EFEF45F0FF0E2D15
:108B910014286EFF0E2E14296EFF0E2F142A6E7FDD
:108BA1000E30142B6E285029102A102B10D8B4DC4B
:108BB100EF45F0DEEF45F0E2EF45F0010E316EEFEB
:108BC100EF45F033A0E7EF45F0E9EF45F0EFEF4572
:108BD100F0010E316EEFEF45F0EFEF45F03150D877
:108BE100B4F5EF45F0F7EF45F01FEF46F0010E3316
:108BF10026000E34223522362236A002EF46F0043A
:108C0100EF46F01FEF46F033C028F034C029F035AD
:108C1100C02AF036C02BF02B342B322A32293228CD
:108C21003228C033F029C034F02AC035F02BC036C9
:108C3100F0374A382A1FEF46F01FEF46F038BE2AB8
:108C4100EF46F0385008E13728D8A02AEF46F02C3B
:108C5100EF46F036EF46F0000E336E000E346E80B4
:108C61000E356E7F0E366E6AEF46F038BE43EF4624
:108C7100F0385006E13704D8B041EF46F043EF46F3
:108C8100F04FEF46F0000E336E000E346E000E35DD
:108C91006E000E366E000E2C6E6AEF46F037C03253
:108CA100F0FF0E3316FF0E34167F0E3516000E360A
:108CB1001632A05EEF46F060EF46F063EF46F03506
:108CC1008E63EF46F0D8903230366E6AEF46F06A26
:108CD100EF46F02C50361233C020F034C021F0356D
:108CE100C022F036C023F076EF46F01200685080C3
:108CF1000B756E68506824776E67AE82EF46F0841C
:108D0100EF46F087EF46F0778087EF46F07750D84F
:108D1100B48DEF46F08FEF46F0A6EF46F07728D8F6
:108D2100A495EF46F097EF46F0A1EF46F0000E65EF
:108D31006E000E666E000E676E000E686EA1EF4645
:108D4100F0678E000E686EB0EF46F0000E656E00A3
:108D51000E666E000E676E000E686EB0EF46F06C28
:108D610050800B766E75507618D8B4BAEF46F0BCC9
:108D7100EF46F0BFEF46F0758CBFEF46F06C506CDC
:108D810024766E6BAEC7EF46F0C9EF46F0CCEF46E6
:108D9100F07680CCEF46F07650D8B4D2EF46F0D4DE
:108DA100EF46F0EBEF46F07628D8A4DAEF46F0DC98
:108DB100EF46F0E6EF46F0000E696E000E6A6E00B7
:108DC1000E6B6E000E6C6EE6EF46F06B8E000E6C55
:108DD1006EF5EF46F0000E696E000E6A6E000E6BC6
:108DE1006E000E6C6EF5EF46F07750765CD8B0FCF5
:108DF100EF46F0FEEF46F029EF47F075AC03EF4781
:108E0100F005EF47F009EF47F0800E751A09EF47BB
:108E1100F077C078F076C077F078C076F065C078EA
:108E2100F069C065F078C069F066C078F06AC06624
:108E3100F078C06AF067C078F06BC067F078C06BFB
:108E4100F068C078F06CC068F078C06CF029EF472A
:108E5100F0000E786E77506D6E6E6A6D1E6E1E6D2F
:108E61004A6E2A76506F6E706A6D506F266E507022
:108E71002270BE45EF47F0705009E11A0E6F5CD8C1
:108E8100A045EF47F047EF47F084EF47F0655066A4
:108E91001067106810D8A450EF47F053EF47F00166
:108EA1000E54EF47F0000E786E000E656E000E66F0
:108EB1006E000E676E000E686E76C077F08FEF471A
:108EC100F084EF47F078A068EF47F06AEF47F07061
:108ED100EF47F0D89078300109786E74EF47F0D8F9
:108EE10090783274EF47F065A079EF47F07BEF4758
:108EF100F07EEF47F0788E7EEF47F0683468326796
:108F01003266326532772A7650775CD8A08BEF478C
:108F1100F08DEF47F063EF47F08FEF47F075BC94AA
:108F2100EF47F096EF47F0DEEF47F07750D8A49C7B
:108F3100EF47F09EEF47F0AAEF47F0000E656E0095
:108F41000E666E000E676E000E686E38EF49F038DF
:108F5100EF49F0695065266A5066226B5067226CB2
:108F610050682268A0B7EF47F0B9EF47F08EEF489D
:108F7100F078A0BEEF47F0C0EF47F0C6EF47F0D85A
:108F81009078300109786ECAEF47F0D8907832CAEC
:108F9100EF47F065A0CFEF47F0D1EF47F0D4EF47AF
:108FA100F0788ED4EF47F068346832673266326504
:108FB10032772A8EEF48F08EEF48F06950655C6A8F
:108FC1005066586B5067586850800A6D6E6C5080BF
:108FD1000A6D58D8B0EFEF47F0F1EF47F02FEF48A7
:108FE100F065C06DF066C06EF067C06FF068C0706C
:108FF100F06D1E6E1E6F1E701E6D2A000E6E226FAA
:1090010022702269506D24716E6A506E20726E6BEF
:10901100506F20736E6C507020746EFF0E7124655A
:109021006EFF0E7220666EFF0E7320676EFF0E7468
:1090310020686E800E751A786C7850D8A423EF489A
:10904100F025EF48F037EF48F0010E6526000E6677
:10905100226722682237EF48F037EF48F069506500
:109061005E6A50665A6B50675A6C50685A65506612
:109071001067106810D8A440EF48F042EF48F08321
:10908100EF48F07850D8A448EF48F04AEF48F08311
:10909100EF48F0000E656E000E666E000E676E0002
:1090A1000E686E38EF49F038EF49F083EF48F0D899
:1090B10090653666366736683678AE62EF48F0649A
:1090C100EF48F067EF48F0658067EF48F078A06CF3
:1090D100EF48F06EEF48F072EF48F0D880783676BE
:1090E100EF48F0D890783676EF48F07750D8B47CD6
:1090F100EF48F07EEF48F083EF48F0770683EF48C2
:10910100F083EF48F067AE88EF48F08AEF48F058F7
:10911100EF48F08EEF48F08EEF48F0000E766E7853
:10912100AE95EF48F097EF48F0B3EF48F078C06D97
:10913100F07F0E6D16D8B4A0EF48F0A2EF48F0A66C
:10914100EF48F0010E766EB3EF48F065A0ABEF4843
:10915100F0ADEF48F0B3EF48F0010E766EB3EF4893
:10916100F0B3EF48F07650D8B4B9EF48F0BBEF4810
:10917100F0ECEF48F0010E6526000E6622672268CA
:109181002268A0C6EF48F0C8EF48F0ECEF48F06560
:10919100C06DF066C06EF067C06FF068C070F070AF
:1091A1003470326F326E326D326DC065F06EC066F2
:1091B100F06FC067F070C068F07728D8B4E3EF486B
:1091C100F0E5EF48F0ECEF48F0772AECEF48F0ECEF
:1091D100EF48F0ECEF48F07728D8B4F2EF48F0F41C
:1091E100EF48F0FEEF48F07750D8A4FAEF48F0FCD2
:1091F100EF48F014EF49F0FEEF48F0000E656E0005
:109201000E666E000E676E000E686E7750D8A40C65
:10921100EF49F00EEF49F014EF49F0000E756E14AE
:10922100EF49F014EF49F077A019EF49F01BEF492E
:10923100F01EEF49F0678E21EF49F0679E21EF495B
:10924100F0D8907730686E75AE29EF49F02BEF4971
:10925100F02EEF49F0688E2EEF49F065C065F0669B
:10926100C066F067C067F068C068F038EF49F01277
:1092710000760ED36E070EB46E0F0EC16E84EC2A0B
:10928100F007EC2BF0F1EC2AF03AEC2BF020EC2B70
:10929100F0D9EC2DF0BC0E026EBE0E036E16EC2E54
:1092A100F0400E6AEC2CF0EA0E026EBF0E036E1651
:1092B100EC2EF096EC2CF096EC2CF0B3EC2AF000AE
:1092C1000E81BE010E0001D56F67EF49F00001DC90
:1092D10051B4EC3EF00001DC1F25EC3CF00001FD37
:1092E10005D8A476EF49F078EF49F0C9EF4CF0804A
:1092F100B47DEF49F07FEF49F0FEEF49F0000EFD3C
:109301006F010ED96F000ECF6F000ECE6F080EDB0E
:1093110019D8A48EEF49F090EF49F0D6EF49F0FA51
:1093210051080D060EF326000EF422A70EF324F6C3
:109331006EBC0EF420F76E0900F5500900F510D847
:10934100B4A5EF49F0A7EF49F0C4EF49F0FA51088D
:109351000D060EF326000EF422A70EF324F66EBCC2
:109361000EF420F76E02D8C2EF49F00500FA6E093B
:1093710000F550FD6E0900F550FE6EF850FF6EFAD3
:10938100501200C4EF49F00001FA51080D050EF327
:1093910026000EF422A70EF324F66EBC0EF420F77D
:1093A1006E0800F5CFFAF0F3EF49F0DB51D8A4DCF9
:1093B100EF49F0DEEF49F0E2EF49F0080EDB6FF321
:1093C100EF49F0080EDB19D8B4E9EF49F0EBEF49AA
:1093D100F0F3EF49F0080EDB6FF3EF49F0F3EF49DB
:1093E100F0F3EF49F0B3EC2AF0010E0001D86F0061
:1093F1000ECD6F000ECC6FFEEF49F0000EBB6F007B
:109401000EBA6FBBBF0EEF4AF0BB5109E1C80EBAED
:109411005DD8A00EEF4AF010EF4AF014EF4AF0C900
:10942100EF4CF0C9EF4CF0000E81BE010ED56F423A
:109431000EE82EFED700D0000E81BE010E0001D431
:109441006FD551D419D8B428EF4AF02AEF4AF0B4B5
:10945100EF4CF0000EBB6FC80EBA6F53EF4AF0002D
:109461000EF96F150EF86F3AEC2BF0000E0001F7B4
:109471006F000EF66F20EC2BF0000E0001F76F1558
:109481000EF66F070EDB6F000ECD6F000ECC6F0D69
:109491000E0001B86FFB0EE82EFED7B82FFCD700E7
:1094A100D0B4EF4CF080B858EF4AF05BEF4AF001CE
:1094B1000E5CEF4AF0000E0001B86F81BE63EF4A07
:1094C100F066EF4AF0010E67EF4AF0000EB81BD8C4
:1094D100A46DEF4AF06FEF4AF073EF4AF0000ED639
:1094E1006F77EF4AF0010ED66F77EF4AF00D0E005D
:1094F10001B86FFB0EE82EFED7B82FFCD700D000C5
:109501000E0001CD6F000ECC6F010ED86F90EF4CA5
:10951100F0D605D8A48FEF4AF091EF4AF0ACEF4AAC
:10952100F0F051F625B86FF151F721B96F100EB96E
:109531005DD8B09EEF4AF0A0EF4AF0A8EF4AF0F0F4
:1095410051F625F66FF151F721F76FA8EF4AF02098
:10955100EC2BF0ACEF4AF00001D651D8A4B3EF4A9E
:10956100F0B5EF4AF0B4EF4CF0F0C0B8F0F1C0B98B
:10957100F0B81FB91FB84BB92BF651B827F751B93D
:1095810023B851F05DB951F159D8B0CAEF4AF0CCC6
:10959100EF4AF0DCEF4AF0F0C0B8F0F1C0B9F0B832
:1095A1001FB91FB84BB92BF651B825F66FF751B952
:1095B10021F76FDCEF4AF020EC2BF0B4EF4CF0B464
:1095C100EF4CF00001D605D8A4E9EF4AF0EBEF4AE1
:1095D100F006EF4BF0F051F825B86FF151F921B9D0
:1095E1006F100EB95DD8B0F8EF4AF0FAEF4AF00209
:1095F100EF4BF0F051F825F86FF151F921F96F02B5
:10960100EF4BF03AEC2BF006EF4BF00001D651D8BE
:10961100A40DEF4BF00FEF4BF0B4EF4CF0F0C0B8EE
:10962100F0F1C0B9F0B81FB91FB84BB92BF851B858
:1096310027F951B923B851F05DB951F159D8B02486
:10964100EF4BF026EF4BF036EF4BF0F0C0B8F0F1F6
:10965100C0B9F0B81FB91FB84BB92BF851B825F8EC
:109661006FF951B921F96F36EF4BF03AEC2BF0B4A9
:10967100EF4CF0B4EF4CF00001D605D8A443EF4B0A
:10968100F045EF4BF060EF4BF0F051F825B86FF17A
:1096910051F921B96F100EB95DD8B052EF4BF054AA
:1096A100EF4BF05CEF4BF0F051F825F86FF151F909
:1096B10021F96F5CEF4BF03AEC2BF060EF4BF000CF
:1096C10001D651D8A467EF4BF069EF4BF0B4EF4CE2
:1096D100F0F0C0B8F0F1C0B9F0B81FB91FB84BB97C
:1096E1002BF851B827F951B923B851F05DB951F1AF
:1096F10059D8B07EEF4BF080EF4BF090EF4BF0F08C
:10970100C0B8F0F1C0B9F0B81FB91FB84BB92BF808
:1097110051B825F86FF951B921F96F90EF4BF03A33
:10972100EC2BF0B4EF4CF0B4EF4CF00001D605D8BF
:10973100A49DEF4BF09FEF4BF0B0EF4BF0FA5108C7
:109741000D040EF326000EF422A70EF324F66EBCD0
:109751000EF420F76E0800F5CFFAF0B0EF4BF0D61B
:1097610051D8A4B6EF4BF0B8EF4BF0B4EF4CF0FA90
:1097710051080D030EF326000EF422A70EF324F672
:109781006EBC0EF420F76E0800F5CFFAF0B4EF4C82
:10979100F0B4EF4CF0B4EF4CF0010ED86F000ECDE9
:1097A1006F000ECC6FD605D8A4D9EF4BF0DBEF4B91
:1097B100F000EF4CF0F0C0B8F0F1C0B9F0B81FB94B
:1097C1001FB84BB92BFF0EB827000EB923B851F4BF
:1097D1005DB951F559D8B0F0EF4BF0F2EF4BF0FC19
:1097E100EF4BF0F051F425F46FF151F521F56FFCD9
:1097F100EF4BF0FCEF4BF007EC2BF000EF4CF000DF
:1098010001D651D8A407EF4CF009EF4CF0B4EF4C5E
:10981100F0F451F05DF551F159D8B012EF4CF0145C
:10982100EF4CF026EF4CF0F0C0B8F0F1C0B9F0B851
:109831001FB91FB84BB92BF451B825F46FF551B9C5
:1098410021F56F26EF4CF026EF4CF007EC2BF0B42E
:10985100EF4CF0B4EF4CF0010E0001D86F000ECDCB
:109861006F000ECC6FD605D8A439EF4CF03BEF4C0E
:10987100F060EF4CF0F0C0B8F0F1C0B9F0B81FB92A
:109881001FB84BB92BFF0EB827000EB923B851F200
:109891005DB951F359D8B050EF4CF052EF4CF05C38
:1098A100EF4CF0F051F225F26FF151F321F36F5CBF
:1098B100EF4CF05CEF4CF0F1EC2AF060EF4CF00073
:1098C10001D651D8A467EF4CF069EF4CF0B4EF4CDE
:1098D100F0F251F05DF351F159D8B072EF4CF074E0
:1098E100EF4CF086EF4CF0F0C0B8F0F1C0B9F0B831
:1098F1001FB91FB84BB92BF251B825F26FF351B90B
:1099010021F36F86EF4CF086EF4CF0F1EC2AF0B4C6
:10991100EF4CF0B4EF4CF0B4EF4CF0B4EF4CF0007E
:1099210001DB51010AD8B489EF4AF0030AD8B4E245
:10993100EF4AF0010AD8B43CEF4BF0070AD8B4B4AF
:10994100EF4CF0010AD8B4CDEF4BF0030AD8B42C98
:10995100EF4CF00E0AD8B496EF4BF0B4EF4CF0B4E4
:10996100EF4CF0B4EF4CF00001BA4BBB2BBBBFC3C3
:10997100EF4CF0BB5109E1C80EBA5DD8A0C3EF4C62
:10998100F0C5EF4CF014EF4AF0C9EF4CF0C9EF4CC1
:10999100F0D905D8A4CFEF4CF0D1EF4CF0EEEF4C5D
:1099A100F0010ECE25CE6F000ECF21CF6FCF510922
:1099B100E10B0ECE5DD8A0E0EF4CF0E2EF4CF0EE03
:1099C100EF4CF0000ECF6F000ECE6F010EFD6F0059
:1099D1000ED96FEEEF4CF0EEEF4CF0D805D8A4F4B1
:1099E100EF4CF0F6EF4CF06BEF4DF0010ECC25CCC7
:1099F1006F000ECD21CD6FCD5109E1330ECC5DD875
:109A0100A005EF4DF007EF4DF02AEF4DF0FB05D823
:109A1100A40DEF4DF00FEF4DF014EF4DF0FC1F00D2
:109A21000EFB6F14EF4DF0FC05D8A41AEF4DF01C9E
:109A3100EF4DF022EF4DF0000EF16F010EF06F2EA1
:109A4100EF4DF0000EF16F140EF06F2EEF4DF02E72
:109A5100EF4DF0010EFB6F2EEF4DF0CD5109E15BA3
:109A61000ECC5DD8A037EF4DF039EF4DF06BEF4DD7
:109A7100F0000ECD6F000ECC6F000ED86F080EDB1C
:109A810019D8B446EF4DF048EF4DF056EF4DF0DBED
:109A910051D8B44EEF4DF050EF4DF056EF4DF00868
:109AA1000EDB6F010ED86F5CEF4DF0000EDB6F0126
:109AB1000EFA6F5CEF4DF0B3EC2AF0010E0001FCE1
:109AC1006F000EF16F010EF06F010EFB6F6BEF4D2A
:109AD100F06BEF4DF0DB5146EC30F067EF49F0678A
:109AE100EF49F000EF00F0000E196E000E1A6E0043
:109AF1000E176E000E166E000E1B6E000E186E9382
:109B0100EF4DF01750080D020EF326000EF422A7B8
:109B11000EF324F66EBC0EF420F76E0800F5501714
:109B21002693EF4DF017500001FA5DD8B09BEF4D31
:109B3100F09DEF4DF082EF4DF09FEF4DF0FA51089F
:109B41000D020EF326000EF422A70EF324F66EBCCE
:109B51000EF420F76E0800F550000817241A6E174E
:109B6100061AC016F01A500F6E106A020E0F260068
:109B71000E1022FA51116E126A0F50115C125080B0
:109B81000A136E1050800A1358D8A0CAEF4DF0CCBA
:109B9100EF4DF04BEF4FF0FA510F6E106AFF0E11BF
:109BA1006EFF0E126E1750136E146A1150132612A7
:109BB1005014220F50135C1450800A156E105080FF
:109BC1000A1558D8A0E7EF4DF0E9EF4DF04BEF4FF4
:109BD100F0FA51FE0F1A6E1A50030F176E16500845
:109BE1000DA70EF324F66EBC0EF420F76E0900F5F6
:109BF100CF01F00A00F5CF02F0F7EC2CF001501B79
:109C01006E1B500F6E106A0F1E101E0F4A102A1085
:109C11000E0F24076E000E1020086E000E0A6E0251
:109C21000E096E6EEC31F007501B6E000E056E00D2
:109C31000E8CEC2FF01BC018F035EF4EF023EF4ED9
:109C4100F023EF4EF03FEC2CF00009D8A42BEF4E9F
:109C5100F02DEF4EF023EF4EF02FEF4EF02D0EB220
:109C6100EC2BF0180635EF4EF01850D8A43BEF4E10
:109C7100F03DEF4EF023EF4EF03FEF4EF0000E07B8
:109C81006E1650080DA70EF324F66EBC0EF420F7E5
:109C91006E0900F5CF08F00A00F5CF09F0010E0AB0
:109CA1006E2D0E0B6E1B5072EC38F0010E196E1AF0
:109CB1002A3EEF4FF03EEF4FF00001FA511A18D84B
:109CC100A465EF4EF067EF4EF0D1EF4EF01A500859
:109CD1000DA70EF324F66EBC0EF420F76E0900F505
:109CE100CF01F00A00F5CF02F0F7EC2CF001501B88
:109CF1006E1B500F6E106A0F1E101E0F4A102A1095
:109D01000E0F24076E000E1020086E000E0A6E0260
:109D11000E096E6EEC31F007501B6E19C005F00094
:109D21000E8CEC2FF01BC018F0ADEF4EF09BEF4EF8
:109D3100F09BEF4EF03FEC2CF00009D8A4A3EF4EBE
:109D4100F0A5EF4EF09BEF4EF0A7EF4EF03E0EB2B6
:109D5100EC2BF01806ADEF4EF01850D8A4B3EF4E2F
:109D6100F0B5EF4EF09BEF4EF0B7EF4EF019C00794
:109D7100F01A50080DA70EF324F66EBC0EF420F76E
:109D81006E0900F5CF08F00A00F5CF09F0010E0ABF
:109D91006E3C0E0B6E1B5072EC38F0192A3BEF4FE4
:109DA100F01A50080DA70EF324F66EBC0EF420F73E
:109DB1006E0900F5CF01F00A00F5CF02F0F7EC2CA7
:109DC100F001501B6E1B500F6E106A0F1E101E0FFC
:109DD1004A102A100E0F24076E000E1020086E0084
:109DE1000E0A6E020E096E6EEC31F007501B6E19F1
:109DF100C005F0000E8CEC2FF01BC018F017EF4FD0
:109E0100F005EF4FF005EF4FF03FEC2CF00009D8D3
:109E1100A40DEF4FF00FEF4FF005EF4FF011EF4FA3
:109E2100F0200EB2EC2BF0180617EF4FF01850D8B7
:109E3100A41DEF4FF01FEF4FF005EF4FF021EF4F53
:109E4100F019C007F01A50080DA70EF324F66EBCE6
:109E51000EF420F76E0900F5CF08F00A00F5CF09DE
:109E6100F0010E0A6E200E0B6E1B5072EC38F019C9
:109E71002A3BEF4FF01A2A3EEF4FF01A50175CD8E9
:109E8100B045EF4FF047EF4FF05DEF4EF02FEF523F
:109E9100F02FEF52F01A500F6E106A020E0F2600CB
:109EA1000E10220001FA51116E126A0F50115C124C
:109EB10050800A136E1050800A1358D8B063EF4FC8
:109EC100F065EF4FF0C2EF50F01A50030F176E1A02
:109ED10050080DA70EF324F66EBC0EF420F76E09A0
:109EE10000F5CF01F00A00F5CF02F0F7EC2CF001FC
:109EF100501B6E1B500F6E106A0F1E101E0F4A1062
:109F01002A100E0F24076E000E1020086E000E0A94
:109F11006E020E096E6EEC31F007501B6E000E05DD
:109F21006E000E8CEC2FF01BC018F0AEEF4FF09CC2
:109F3100EF4FF09CEF4FF03FEC2CF00009D8A4A4B8
:109F4100EF4FF0A6EF4FF09CEF4FF0A8EF4FF02D41
:109F51000EB2EC2BF01806AEEF4FF01850D8A4B4A7
:109F6100EF4FF0B6EF4FF09CEF4FF0B8EF4FF0002E
:109F71000E076E1A50080DA70EF324F66EBC0EF4F0
:109F810020F76E0900F5CF08F00A00F5CF09F001BE
:109F91000E0A6E2D0E0B6E1B5072EC38F0010E196D
:109FA1006E1A2AB5EF50F00001FA511A18D8A4DC44
:109FB100EF4FF0DEEF4FF048EF50F01A50080DA7C9
:109FC1000EF324F66EBC0EF420F76E0900F5CF01F6
:109FD100F00A00F5CF02F0F7EC2CF001501B6E1BDC
:109FE100500F6E106A0F1E101E0F4A102A100E0F0E
:109FF10024076E000E1020086E000E0A6E020E0974
:10A001006E6EEC31F007501B6E19C005F0000E8C1E
:10A01100EC2FF01BC018F024EF50F012EF50F012AB
:10A02100EF50F03FEC2CF00009D8A41AEF50F01CCF
:10A03100EF50F012EF50F01EEF50F03E0EB2EC2B4D
:10A04100F0180624EF50F01850D8A42AEF50F02C45
:10A05100EF50F012EF50F02EEF50F019C007F01A48
:10A0610050080DA70EF324F66EBC0EF420F76E090E
:10A0710000F5CF08F00A00F5CF09F0010E0A6E3C99
:10A081000E0B6E1B5072EC38F0192AB2EF50F01A19
:10A0910050080DA70EF324F66EBC0EF420F76E09DE
:10A0A10000F5CF01F00A00F5CF02F0F7EC2CF0013A
:10A0B100501B6E1B500F6E106A0F1E101E0F4A10A0
:10A0C1002A100E0F24076E000E1020086E000E0AD3
:10A0D1006E020E096E6EEC31F007501B6E19C00551
:10A0E100F0000E8CEC2FF01BC018F08EEF50F07CBE
:10A0F100EF50F07CEF50F03FEC2CF00009D8A48435
:10A10100EF50F086EF50F07CEF50F088EF50F020E8
:10A111000EB2EC2BF018068EEF50F01850D8A49424
:10A12100EF50F096EF50F07CEF50F098EF50F019AF
:10A13100C007F01A50080DA70EF324F66EBC0EF4FA
:10A1410020F76E0900F5CF08F00A00F5CF09F001FC
:10A151000E0A6E200E0B6E1B5072EC38F0192AB2EB
:10A16100EF50F01A2AB5EF50F01A50175CD8B0BC76
:10A17100EF50F0BEEF50F0D4EF4FF02FEF52F02F31
:10A18100EF52F017500001FA19D8A4CAEF50F0CCE1
:10A19100EF50F02FEF52F01750FD0F1A6E165008C6
:10A1A1000DA70EF324F66EBC0EF420F76E0900F530
:10A1B100CF01F00A00F5CF02F0F7EC2CF001501BB3
:10A1C1006E1B500F6E106A0F1E101E0F4A102A10C0
:10A1D1000E0F24076E000E1020086E000E0A6E028C
:10A1E1000E096E6EEC31F007501B6E000E056E000D
:10A1F1000E8CEC2FF01BC018F015EF51F003EF514E
:10A20100F003EF51F03FEC2CF00009D8A40BEF5113
:10A21100F00DEF51F003EF51F00FEF51F02D0EB2B1
:10A22100EC2BF0180615EF51F01850D8A41BEF5184
:10A23100F01DEF51F003EF51F01FEF51F0000E0749
:10A241006E1650080DA70EF324F66EBC0EF420F71F
:10A251006E0900F5CF08F00A00F5CF09F0010E0AEA
:10A261006E2D0E0B6E1B5072EC38F0010E196E1A2A
:10A271002A1EEF52F01EEF52F00001FA511A18D8BF
:10A28100A445EF51F047EF51F0B1EF51F01A5008EA
:10A291000DA70EF324F66EBC0EF420F76E0900F53F
:10A2A100CF01F00A00F5CF02F0F7EC2CF001501BC2
:10A2B1006E1B500F6E106A0F1E101E0F4A102A10CF
:10A2C1000E0F24076E000E1020086E000E0A6E029B
:10A2D1000E096E6EEC31F007501B6E19C005F000CF
:10A2E1000E8CEC2FF01BC018F08DEF51F07BEF516D
:10A2F100F07BEF51F03FEC2CF00009D8A483EF5133
:10A30100F085EF51F07BEF51F087EF51F03E0EB247
:10A31100EC2BF018068DEF51F01850D8A493EF51A3
:10A32100F095EF51F07BEF51F097EF51F019C00725
:10A33100F01A50080DA70EF324F66EBC0EF420F7A8
:10A341006E0900F5CF08F00A00F5CF09F0010E0AF9
:10A351006E3C0E0B6E1B5072EC38F0192A1BEF523B
:10A36100F01A50080DA70EF324F66EBC0EF420F778
:10A371006E0900F5CF01F00A00F5CF02F0F7EC2CE1
:10A38100F001501B6E1B500F6E106A0F1E101E0F36
:10A391004A102A100E0F24076E000E1020086E00BE
:10A3A1000E0A6E020E096E6EEC31F007501B6E192B
:10A3B100C005F0000E8CEC2FF01BC018F0F7EF5128
:10A3C100F0E5EF51F0E5EF51F03FEC2CF00009D84A
:10A3D100A4EDEF51F0EFEF51F0E5EF51F0F1EF5156
:10A3E100F0200EB2EC2BF01806F7EF51F01850D810
:10A3F100A4FDEF51F0FFEF51F0E5EF51F001EF5205
:10A40100F019C007F01A50080DA70EF324F66EBC20
:10A411000EF420F76E0900F5CF08F00A00F5CF0918
:10A42100F0010E0A6E200E0B6E1B5072EC38F01903
:10A431002A1BEF52F01A2A1EEF52F01A50175CD85D
:10A44100B025EF52F027EF52F03DEF51F02FEF52D0
:10A45100F02FEF52F02FEF52F02FEF52F012008C4D
:10A461000E00019C6F000E9D6F35EF5EF0250EB260
:10A4710019D8B43EEF52F040EF52F04AEF52F08853
:10A48100C0D9FF89C0DAFFB2C0DFFF884B892B3505
:10A49100EF5EF0000EA36F000EA26F000EA96F0019
:10A4A1000EA86F5EEF52F05EEF52F00001A8878AAE
:10A4B1004B8B2B5EEF52F06EEF52F08AC0F6FF8BA2
:10A4C100C0F7FF0800F5502D0AD8B456EF52F06ED0
:10A4D100EF52F06EEF52F05EEF52F08AC0F6FF8B52
:10A4E100C0F7FF0800F55054EC2BF0D8A07BEF52D9
:10A4F100F07DEF52F0BCEF52F0000E0001A36F00AF
:10A501000EA26F84EF52F0A2C001F0A3C002F000CE
:10A511000E046E0A0E036EC7EC2AF001C0A2F0020F
:10A52100C0A3F0D00E0001906FFF0E916F8AC0F6AC
:10A53100FF8BC0F7FF0800F550926F936B9051921B
:10A5410027915193239251A2279351A3238A4B8B95
:10A551002B8AC0F6FF8BC0F7FF0800F55054EC2B97
:10A56100F0D8B0B6EF52F0B8EF52F084EF52F0BC31
:10A57100EF52F0BCEF52F08AC0F6FF8BC0F7FF0834
:10A5810000F5502E0AD8A4C8EF52F0CAEF52F005D8
:10A59100EF53F00001A98D8A4B8B2B000EB16F0098
:10A5A1000EB06FF2EF52F0B0C001F0B1C002F00096
:10A5B1000E046E0A0E036EC7EC2AF08AC0F6FF8BFA
:10A5C100C0F7FF0800F5500126000E0222D00E014F
:10A5D100240001B06FFF0E0220B16F8A4B8B2BF26A
:10A5E100EF52F08AC0F6FF8BC0F7FF0800F5505418
:10A5F100EC2BF0D8B0FFEF52F001EF53F0D4EF5253
:10A60100F01FEF53F01FEF53F0000E0001B16F0088
:10A611000EB06FA9891FEF53F01FEF53F04AEF5EA1
:10A62100F0A9853CEF53F0A9833CEF53F035EF5E81
:10A63100F0C00EA8133CEF53F03CEF53F08AC0F684
:10A64100FF8BC0F7FF00018A4B8B2B0800F5CFB2BF
:10A65100F0B251000AD8B44AEF5EF0660AD8B411DC
:10A66100EF53F0010AD8B414EF53F0120AD8B41919
:10A67100EF53F035EF5EF0070EA915D8B443EF5351
:10A68100F045EF53F07BEF5CF0A9A94AEF53F04C92
:10A69100EF53F052EF53F0000EB16F060EB06F5250
:10A6A100EF53F09CC0D9FF9DC0DAFFDECFACF0DEE6
:10A6B100CFADF0DECFAEF0DECFAFF0040E9C2700C1
:10A6C1000E9D23AFBF69EF53F067EF53F080EF5357
:10A6D100F0ACC01CF0ADC01DF0AEC01EF0AFC01F8D
:10A6E100F071EC2BF01CC0ACF01DC0ADF01EC0AE83
:10A6F100F01FC0AFF0030E0001A81380EF53F0006C
:10A701000EAB6F000EAA6FACC001F0ADC002F0AE8F
:10A71100C003F0AFC004F0000E056E000E066E001F
:10A721000E076E000E086EE9EC2FF0D8B09BEF53C8
:10A73100F09DEF53F039EF54F00001AE35AF3582A3
:10A741000FAA6FAB6BFF0EAB23AA07D8A0AB07AA6A
:10A75100C001F0ABC002F0000E046E030E036EC721
:10A76100EC2AF001C0AAF002C0ABF0AAC007F0AB1E
:10A77100C008F0000E0A6E0A0E096E6EEC31F00789
:10A78100C0AAF008C0ABF00001ABBFCCEF53F0CAD8
:10A79100EF53F0D1EF53F0AA07D8A0AB07D1EF5395
:10A7A100F0AA51000826EC42F039C09EF03AC09F51
:10A7B100F03BC0A0F03CC0A1F09EC020F09FC021A2
:10A7C100F0A0C022F0A1C023F0ACC024F0ADC025A0
:10A7D100F0AEC026F0AFC027F040EC44F020C09EA0
:10A7E100F021C09FF022C0A0F023C0A1F09EC08044
:10A7F100F09FC081F0A0C082F0A1C083F0000E00E4
:10A8010001846F000E856F800E866F3F0E876F107B
:10A81100EC36F00001D8B010EF54F012EF54F017FD
:10A82100EF54F0AA07D8A0AB0739EF54F09EC080CF
:10A83100F09FC081F0A0C082F0A1C083F0000E841F
:10A841006F000E856F200E866F410E876F10EC36FC
:10A85100F00001D8A02FEF54F031EF54F039EF544C
:10A86100F0AA4BAB2B39EF54F039EF54F039EF54D8
:10A87100F00001ABBF47EF54F0AB5106E1AA05D898
:10A88100B045EF54F047EF54F04BEF54F0010EB2E6
:10A891006F4DEF54F0AAC0B2F0A9A352EF54F05497
:10A8A100EF54F0C0EF57F0ABAF62EF54F0FC0EAADB
:10A8B1005DFF0EAB59D8A060EF54F062EF54F07316
:10A8C100EF54F0B051AA5DAB51800A906FB1518045
:10A8D1000A9059D8A06FEF54F071EF54F0C0EF57C0
:10A8E100F073EF54F0B051B111D8B47AEF54F07C59
:10A8F100EF54F088EF54F0A9A381EF54F083EF54A3
:10A90100F088EF54F0B007D8A0B10788EF54F0B148
:10A911005109E1090EB05DD8A091EF54F093EF54C5
:10A92100F097EF54F0080EB26F9BEF54F0B0C0B245
:10A93100F09BEF54F0ACC001F0ADC002F0AEC0032B
:10A94100F0AFC004F0000E056E000E066E000E079B
:10A951006E000E086EE9EC2FF0D8B0B2EF54F0B4EF
:10A96100EF54F0D6EF55F0ACC042F0ADC043F0AEBD
:10A97100C044F0AFC045F00001B2510008AA25263D
:10A98100EC42F039C046F03AC047F03BC048F03CD9
:10A99100C049F016EC40F042C0ACF043C0ADF04409
:10A9A100C0AEF045C0AFF0ACC069F0ADC06AF0AE6A
:10A9B100C06BF0AFC06CF0ACC05BF0ADC05CF0AE92
:10A9C100C05DF0AFC05EF067EC35F05BC00EF05CCF
:10A9D100C00FF05DC010F05EC011F0000E2EEC3A19
:10A9E100F00EC01CF00FC01DF010C01EF011C01FF2
:10A9F100F071EC2BF01CC065F01DC066F01EC06745
:10AA0100F01FC068F077EC46F065C080F066C08149
:10AA1100F067C082F068C083F0000E0001846F000F
:10AA21000E856F000E866F3F0E876F10EC36F000BB
:10AA310001D8A01EEF55F020EF55F03CEF55F0ACDA
:10AA4100C065F0ADC066F0AEC067F0AFC068F000A1
:10AA51000E696E000E6A6E000E6B6E3F0E6C6E77A5
:10AA6100EC46F065C0ACF066C0ADF067C0AEF06812
:10AA7100C0AFF03CEF55F00001B251906F916BD82F
:10AA81009090379137D89090379137040E902700E6
:10AA91000E9123AF0E9025F66EBD0E9121F76EAC8F
:10AAA100C05BF0ADC05CF0AEC05DF0AFC05EF06702
:10AAB100EC35F00900F5505B5C0900F5505C580974
:10AAC10000F5505D580900F5505E58D8A06BEF5560
:10AAD100F06DEF55F08CEF55F0ACC020F0ADC0211A
:10AAE100F0AEC022F0AFC023F0CD0E246ECC0E2507
:10AAF1006ECC0E266E3D0E276E40EC44F020C0ACAD
:10AB0100F021C0ADF022C0AEF023C0AFF00001AA29
:10AB11004BAB2BD6EF55F00001B251040DAF0EF344
:10AB210024F66EBD0EF420F76EACC05BF0ADC05CD8
:10AB3100F0AEC05DF0AFC05EF067EC35F00900F536
:10AB4100505B5C0900F5505C580900F5505D5809EF
:10AB510000F5505E58D8B0B0EF55F0B2EF55F0D6D1
:10AB6100EF55F0ACC020F0ADC021F0AEC022F0AF87
:10AB7100C023F0000E246E000E256E200E266E41BD
:10AB81000E276E40EC44F020C0ACF021C0ADF022A5
:10AB9100C0AEF023C0AFF00001AA07D8A0AB07D622
:10ABA100EF55F0D6EF55F0D6EF55F0050E0001B098
:10ABB10025906F000EB121916F9051A25F9151A329
:10ABC1005B030EA815906F000EA915916F9051911E
:10ABD10011D8B4EEEF55F0F0EF55F0F5EF55F0A2C6
:10ABE10007D8A0A307F5EF55F0A8B7FAEF55F0FC89
:10ABF100EF55F01EEF56F00DEF56F00DEF56F088C1
:10AC0100C0D9FF89C0DAFF200EDF6E884B892BA2E5
:10AC110007D8A0A3070DEF56F0A3BF1AEF56F0A374
:10AC21005106E1A205D8B018EF56F01AEF56F00020
:10AC3100EF56F01EEF56F01EEF56F0030EA81590DA
:10AC41006F000EA915916F90519111D8B42BEF5649
:10AC5100F02DEF56F037EF56F088C0D9FF89C0DAF2
:10AC6100FF2D0EDF6E884B892B37EF56F0ACC05BA2
:10AC7100F0ADC05CF0AEC05DF0AFC05EF067EC352A
:10AC8100F05BC0A4F05CC0A5F05DC0A6F05EC0A7FB
:10AC9100F0A4C001F0A5C002F0A6C003F0A7C00453
:10ACA100F00001B251040DAF0EF324F66EBD0EF4A7
:10ACB10020F76E0900F5CF05F00900F5CF06F00980
:10ACC10000F5CF07F00A00F5CF08F030EC2FF001C6
:10ACD10050300F88C0D9FF89C0DAFFDF6E000188CC
:10ACE1004B892BA4C00EF0A5C00FF0A6C010F0A791
:10ACF100C011F0B251040DAF0EF324F66EBD0EF487
:10AD010020F76E0900F5CF12F00900F5CF13F00915
:10AD110000F5CF14F00A00F5CF15F0E2EC2EF00E9D
:10AD2100C0A4F00FC0A5F010C0A6F011C0A7F0009C
:10AD310001B051B111D8B4A0EF56F0A2EF56F041D5
:10AD4100EF57F088C0D9FF89C0DAFF2E0EDF6E8879
:10AD51004B892BB251B05F000EB15B19EF57F0A9CF
:10AD6100A3B5EF56F0B7EF56F0C9EF56F0A451A5D1
:10AD710011A611A711D8A4C0EF56F0C2EF56F0C921
:10AD8100EF56F0000EB26FB2C0B0F0B16B34EF57B6
:10AD9100F0A4C001F0A5C002F0A6C003F0A7C00452
:10ADA100F0B251040DAF0EF324F66EBD0EF420F790
:10ADB1006E0900F5CF05F00900F5CF06F00900F5A1
:10ADC100CF07F00A00F5CF08F030EC2FF00150303A
:10ADD1000F88C0D9FF89C0DAFFDF6E0001884B8977
:10ADE1002BA4C00EF0A5C00FF0A6C010F0A7C01193
:10ADF100F0B251040DAF0EF324F66EBD0EF420F740
:10AE01006E0900F5CF12F00900F5CF13F00900F536
:10AE1100CF14F00A00F5CF15F0E2EC2EF00EC0A42D
:10AE2100F00FC0A5F010C0A6F011C0A7F019EF57A0
:10AE3100F00001B207B229D8A421EF57F023EF5750
:10AE4100F0B0EF56F034EF57F034EF57F088C0D937
:10AE5100FF89C0DAFF300EDF6E884B892BB007D82F
:10AE6100A0B10734EF57F0B051B111D8A43BEF575F
:10AE7100F03DEF57F027EF57F041EF57F041EF5713
:10AE8100F088C0D9FF89C0DAFF650EDF6E884B8973
:10AE91002BABBF50EF57F04EEF57F05EEF57F0AAD4
:10AEA1006DAB1FD8B0AB2B88C0D9FF89C0DAFF2D9D
:10AEB1000EDF6E884B892B68EF57F088C0D9FF8968
:10AEC100C0DAFF2B0EDF6E884B892B68EF57F0AA93
:10AED100C007F0ABC008F0000E0A6E0A0E096E6ED4
:10AEE100EC31F00750300F88C0D9FF89C0DAFFDF9D
:10AEF1006E0001884B892BAAC001F0ABC002F000A3
